:020000040800F2
:10000000005000208D4800088D0C0008950C000859
:100010009D0C0008A50C0008AD0C000800000000B5
:10002000000000000000000000000000B50C000807
:10003000C10C000800000000CD0C0008D90C00081D
:10004000D5480008D5480008D5480008D54800081C
:10005000D5480008D5480008D5480008D54800080C
:10006000D5480008E50C0008D5480008D548000828
:10007000D5480008D5480008D5480008D5480008EC
:10008000D5480008D5480008D5480008D5480008DC
:10009000D5480008D5480008D5480008D5480008CC
:1000A000D5480008D5480008D5480008D5480008BC
:1000B000D5480008D5480008D5480008D5480008AC
:1000C000D5480008D5480008D5480008D54800089C
:1000D000D5480008D5480008D5480008D54800088C
:1000E000F30C0008D5480008D548000800000000BF
:1000F0000000000000000000000000000000000000
:0C01000000000000000000005FF808F1A3
:10010C0010B5054C237833B9044B13B10448AFF345
:10011C0000800123237010BD0C00002000000000A3
:10012C003049000808B5034B1BB103490348AFF332
:10013C00008008BD000000001000002030490008BD
:10014C00034613F8012B002AFBD1181A013870470B
:10015C0081F0004102E000BF83F0004330B54FEA6C
:10016C0041044FEA430594EA050F08BF90EA020FD9
:10017C001FBF54EA000C55EA020C7FEA645C7FEA6C
:10018C00655C00F0E2804FEA5454D4EB5555B8BF8F
:10019C006D420CDD2C4480EA020281EA030382EA00
:1001AC00000083EA010180EA020281EA0303362D92
:1001BC0088BF30BD11F0004F4FEA01314FF4801C65
:1001CC004CEA113102D0404261EB410113F0004F77
:1001DC004FEA03334CEA133302D0524263EB43032E
:1001EC0094EA050F00F0A780A4F10104D5F1200ECC
:1001FC000DDB02FA0EFC22FA05F2801841F1000127
:10020C0003FA0EF2801843FA05F359410EE0A5F1FA
:10021C0020050EF1200E012A03FA0EFC28BF4CF02B
:10022C00020C43FA05F3C01851EBE37101F00045E1
:10023C0007D54FF0000EDCF1000C7EEB00006EEBEE
:10024C000101B1F5801F1BD3B1F5001F0CD3490878
:10025C005FEA30004FEA3C0C04F101044FEA4452CF
:10026C0012F5800F80F09A80BCF1004F08BF5FEA56
:10027C00500C50F1000041EB045141EA050130BD36
:10028C005FEA4C0C404141EB0101013C28BFB1F548
:10029C00801FE9D291F0000F04BF01460020B1FA93
:1002AC0081F308BF2033A3F10B03B3F120020CDA66
:1002BC000C3208DD02F1140CC2F10C0201FA0CF044
:1002CC0021FA02F10CE002F11402D8BFC2F1200CA9
:1002DC0001FA02F120FA0CFCDCBF41EA0C0190405F
:1002EC00E41AA2BF01EB0451294330BD6FEA0404A8
:1002FC001F3C1CDA0C340EDC04F11404C4F1200293
:10030C0020FA04F001FA02F340EA030021FA04F3A4
:10031C0045EA030130BDC4F10C04C4F1200220FAFB
:10032C0002F001FA04F340EA0300294630BD21FA39
:10033C0004F0294630BD94F0000F83F4801306BFFF
:10034C0081F480110134013D4EE77FEA645C18BFF3
:10035C007FEA655C29D094EA050F08BF90EA020F8A
:10036C0005D054EA000C04BF1946104630BD91EA82
:10037C00030F1EBF0021002030BD5FEA545C05D185
:10038C004000494128BF41F0004130BD14F58004C4
:10039C003CBF01F5801130BD01F0004545F0FE4138
:1003AC0041F470014FF0000030BD7FEA645C1ABF6D
:1003BC00194610467FEA655C1CBF0B46024650EAA4
:1003CC00013406BF52EA033591EA030F41F40021D0
:1003DC0030BD00BF90F0000F04BF0021704730B556
:1003EC004FF4806404F132044FF000054FF000012B
:1003FC0050E700BF90F0000F04BF0021704730B5EC
:10040C004FF4806404F1320410F0004548BF4042C0
:10041C004FF000013EE700BF42004FEAE2014FEA15
:10042C0031014FEA02701FBF12F07F4393F07F4FF0
:10043C0081F06051704732F07F4208BF704793F0F3
:10044C007F4F04BF41F40021704730B54FF4607406
:10045C0001F0004521F000411CE700BF50EA010209
:10046C0008BF704730B54FF000050AE050EA0102B2
:10047C0008BF704730B511F0004502D5404261EB22
:10048C0041014FF4806404F132045FEA915C3FF463
:10049C00D8AE4FF003025FEADC0C18BF03325FEA00
:1004AC00DC0C18BF033202EBDC02C2F1200300FAB1
:1004BC0003FC20FA02F001FA03FE40EA0E0021FAD6
:1004CC0002F11444BDE600BF70B54FF0FF0C4CF4C4
:1004DC00E06C1CEA11541DBF1CEA135594EA0C0F76
:1004EC0095EA0C0F00F0DEF82C4481EA030621EAB1
:1004FC004C5123EA4C5350EA013518BF52EA0335EC
:10050C0041F4801143F4801338D0A0FB02CE4FF09D
:10051C000005E1FB02E506F00042E0FB03E54FF0CD
:10052C000006E1FB03569CF0000F18BF4EF0010EC5
:10053C00A4F1FF04B6F5007F64F5407404D25FEAC1
:10054C004E0E6D4146EB060642EAC62141EA555174
:10055C004FEAC52040EA5E504FEACE2EB4F1FD0CB6
:10056C0088BFBCF5E06F1ED8BEF1004F08BF5FEA34
:10057C00500E50F1000041EB045170BD06F00046E6
:10058C0046EA010140EA020081EA0301B4EB5C0493
:10059C00C2BFD4EB0C0541EA045170BD41F480118B
:1005AC004FF0000E013C00F3AB8014F1360FDEBFB0
:1005BC00002001F0004170BDC4F10004203C35DA8C
:1005CC000C341BDC04F11404C4F1200500FA05F30F
:1005DC0020FA04F001FA05F240EA020001F00042B0
:1005EC0021F0004110EBD37021FA04F642EB060126
:1005FC005EEA430E08BF20EAD37070BDC4F10C0450
:10060C00C4F1200500FA04F320FA05F001FA04F213
:10061C0040EA020001F0004110EBD37041F10001FF
:10062C005EEA430E08BF20EAD37070BDC4F120050A
:10063C0000FA05F24EEA020E20FA04F301FA05F272
:10064C0043EA020321FA04F001F0004121FA04F21A
:10065C0020EA020000EBD3705EEA430E08BF20EAEA
:10066C00D37070BD94F0000F0FD101F00046400024
:10067C0041EB010111F4801F08BF013CF7D041EAA6
:10068C00060195F0000F18BF704703F000465200AA
:10069C0043EB030313F4801F08BF013DF7D043EA7B
:1006AC000603704794EA0C0F0CEA135518BF95EA31
:1006BC000C0F0CD050EA410618BF52EA4306D1D1B8
:1006CC0081EA030101F000414FF0000070BD50EAD7
:1006DC00410606BF1046194652EA430619D094EA61
:1006EC000C0F02D150EA013613D195EA0C0F05D14B
:1006FC0052EA03361CBF104619460AD181EA03019F
:10070C0001F0004141F0FE4141F470014FF0000056
:10071C0070BD41F0FE4141F4780170BD70B54FF0F1
:10072C00FF0C4CF4E06C1CEA11541DBF1CEA135571
:10073C0094EA0C0F95EA0C0F00F0A7F8A4EB050453
:10074C0081EA030E52EA03354FEA013100F088804A
:10075C004FEA03334FF0805545EA131343EA126313
:10076C004FEA022245EA111545EA10654FEA0026C8
:10077C000EF000419D4208BF964244F1FD0404F581
:10078C00407402D25B084FEA3202B61A65EB0305DD
:10079C005B084FEA32024FF480104FF4002CB6EB9A
:1007AC00020E75EB030E22BFB61A754640EA0C001A
:1007BC005B084FEA3202B6EB020E75EB030E22BF5A
:1007CC00B61A754640EA5C005B084FEA3202B6EB9B
:1007DC00020E75EB030E22BFB61A754640EA9C005A
:1007EC005B084FEA3202B6EB020E75EB030E22BF2A
:1007FC00B61A754640EADC0055EA060E18D04FEAE8
:10080C00051545EA16754FEA06164FEAC30343EA87
:10081C0052734FEAC2025FEA1C1CC0D111F4801F54
:10082C000BD141EA00014FF000004FF0004CB6E74D
:10083C0011F4801F04BF01430020B4F1FD0C88BFEC
:10084C00BCF5E06F3FF6AFAEB5EB030C04BFB6EBF7
:10085C00020C5FEA500C50F1000041EB045170BDEA
:10086C000EF0004E4EEA113114EB5C04C2BFD4EB17
:10087C000C0541EA045170BD41F480114FF0000E9B
:10088C00013C90E645EA060E8DE60CEA135594EA17
:10089C000C0F08BF95EA0C0F3FF43BAF94EA0C0F1A
:1008AC000AD150EA01347FF434AF95EA0C0F7FF48F
:1008BC0025AF104619462CE795EA0C0F06D152EAE3
:1008CC0003353FF4FDAE1046194622E750EA4106C7
:1008DC0018BF52EA43067FF4C5AE50EA41047FF4D8
:1008EC000DAF52EA43057FF4EBAE12E74A0011D28A
:1008FC0012F5001211D20DD56FF47873B3EB62526E
:10090C000ED44FEAC12343F0004343EA505323FA79
:10091C0002F070474FF00000704750EA013002D1EE
:10092C004FF0FF3070474FF00000704780B584B037
:10093C0000AF00F0E1FC00F037F800F0FDF800F03B
:10094C00D1F800F073F800F09FF803F04BFB03F0C4
:10095C0007FA03F0E9FA012003F05CFA032003F034
:10096C0087FA1049012003F021FA4FF07E51022042
:10097C0003F01CFA03F0C8FA002003F0A5F903F009
:10098C008BFE3B46184603F0DBFA07F108033A46A8
:10099C0092E8030083E8030003F0B6FA03F016FBB9
:1009AC00EDE700BF0000A04080B590B000AF07F1AC
:1009BC00180328220021184603F087FF3B1D002254
:1009CC001A605A609A60DA601A610223BB610123D3
:1009DC00BB621023FB6202237B630023BB634FF4D7
:1009EC006013FB6307F11803184600F00BFD034678
:1009FC00002B01D000F03EF90F237B600223BB607B
:100A0C000023FB604FF480633B6100237B613B1D43
:100A1C000221184600F078FF0346002B01D000F0AD
:100A2C0029F900BF4037BD4680BD000080B500AF3E
:100A3C00124B134A1A60114B124A5A600F4B002288
:100A4C009A600E4B0022DA600C4B4FF480421A6114
:100A5C000A4B00225A61094B00229A61074B002273
:100A6C00DA61064B00221A62044801F0ADFB034622
:100A7C00002B01D000F0FEF800BF80BD2800002044
:100A8C0000540040A086010080B500AF124B134A01
:100A9C001A60114B124A5A600F4B00229A600E4B8F
:100AAC000022DA600C4B4FF480421A610A4B002290
:100ABC005A61094B00229A61074B0022DA61064BFE
:100ACC0000221A62044801F07FFB0346002B01D080
:100ADC0000F0D0F800BF80BD7C0000200058004022
:100AEC00A086010080B500AF114B124A1A60104B62
:100AFC004FF4E1325A600E4B00229A600C4B0022EC
:100B0C00DA600B4B00221A61094B0C225A61084B1C
:100B1C0000229A61064B0022DA61054800F0C8F900
:100B2C000346002B01D000F0A5F800BF80BD00BF2C
:100B3C00D00000200044004080B588B000AF07F121
:100B4C00100300221A605A609A60DA60444B9B6969
:100B5C00434A43F010039361414B9B6903F010032C
:100B6C00FB60FB683E4B9B693D4A43F0200393615D
:100B7C003B4B9B6903F02003BB60BB68384B9B6904
:100B8C00374A43F004039361354B9B6903F004032C
:100B9C007B607B68324B9B69314A43F0080393615D
:100BAC002F4B9B6903F008033B603B68002220211C
:100BBC002C4801F0BBF94FF400533B612A4B7B618D
:100BCC000023BB6107F110031946284801F02AF8ED
:100BDC0008233B61264B7B610123BB6107F11003AA
:100BEC001946224801F01EF820233B6101237B614A
:100BFC000023BB610223FB6107F11003194619485E
:100C0C0001F010F84FF400733B6102237B61032366
:100C1C00FB6107F110031946124801F003F84FF479
:100C2C0080633B6100237B610023BB6107F11003F0
:100C3C0019460C4800F0F6FF00220021092001F0B3
:100C4C0086FA092001F09FFA00220021282001F0E9
:100C5C007EFA282001F097FA00BF2037BD4680BDF0
:100C6C00001002400008014000001110001001406B
:100C7C000000211080B400AF72B600BF00BFFDE7CA
:100C8C0080B400AF00BFFDE780B400AF00BFFDE74C
:100C9C0080B400AF00BFFDE780B400AF00BFFDE73C
:100CAC0080B400AF00BFFDE780B400AF00BFBD460D
:100CBC0080BC704780B400AF00BFBD4680BC70479D
:100CCC0080B400AF00BFBD4680BC704780B500AF9C
:100CDC0000F058FB00BF80BD80B500AF082001F0CC
:100CEC003DF900BF80BD80B500AF4FF4005001F05E
:100CFC0035F900BF80BD000080B485B000AF154B46
:100D0C009B69144A43F001039361124B9B6903F0F6
:100D1C000103BB60BB680F4BDB690E4A43F0805389
:100D2C00D3610C4BDB6903F080537B607B680A4B0F
:100D3C005B68FB60FB6823F0E063FB60FB6843F0DF
:100D4C000073FB60044AFB68536000BF1437BD4658
:100D5C0080BC7047001002400000014080B58AB092
:100D6C0000AF786007F1180300221A605A609A608D
:100D7C00DA607B681B682B4A934224D12A4B9B690F
:100D8C00294A43F008039361274B9B6903F008033E
:100D9C007B617B69C023BB611223FB6103237B62F4
:100DAC0007F118031946214800F03CFF1E4BDB6984
:100DBC001D4A43F40013D3611B4BDB6903F400138E
:100DCC003B613B6929E07B681B68194A934224D13B
:100DDC00154B9B69144A43F008039361124B9B69B2
:100DEC0003F00803FB60FB684FF44063BB61122304
:100DFC00FB6103237B6207F1180319460B4800F0D3
:100E0C0011FF094BDB69084A43F48003D361064B9D
:100E1C00DB6903F48003BB60BB6800BF2837BD46A9
:100E2C0080BD00BF0054004000100240000C014087
:100E3C000058004080B588B000AF786007F110030F
:100E4C0000221A605A609A60DA607B681B68154A47
:100E5C00934223D1144BDB69134A43F40033D3611F
:100E6C00114BDB6903F40033FB60FB680E4B9B6991
:100E7C000D4A43F0040393610B4B9B6903F004038D
:100E8C00BB60BB680C233B6102237B610223FB61CB
:100E9C0007F110031946054800F0C4FE00BF2037C7
:100EAC00BD4680BD004400400010024000080140D7
:100EBC0080B582B000AF78607B68002B01D1012334
:100ECC0042E07B6893F84130DBB2002B06D17B68A3
:100EDC00002283F840207868FFF7ACFF7B6824225F
:100EEC0083F841207B681B68DA687B681B6822F4F6
:100EFC000052DA60786800F071F97B681B681A6937
:100F0C007B681B6822F490421A617B681B685A69E3
:100F1C007B681B6822F02A025A617B681B68DA68BE
:100F2C007B681B6842F40052DA607B6800225A64CA
:100F3C007B68202283F841207B68202283F84220A2
:100F4C007B6800225A63002318460837BD4680BDD3
:100F5C0080B58AB002AFF860B9603B601346FB8085
:100F6C0000237B61FB6893F84130DBB2202B75D1F9
:100F7C00BB68002B02D0FB88002B01D101236EE053
:100F8C00FB6800225A64FB68212283F8412000F0A0
:100F9C000BFA7861FB68FA889A84FB68FA88DA8421
:100FAC00FB689B68B3F5805F08D1FB681B69002B5D
:100FBC0004D10023FB61BB68BB6103E0BB68FB6130
:100FCC000023BB612EE03B6800937B6900228021EB
:100FDC00F86800F048F80346002B05D0FB68202287
:100FEC0083F8412003233AE0FB69002B0BD1BB694A
:100FFC001B881A46FB681B68C2F308025A60BB695F
:10100C000233BB6107E0FB691A78FB681B685A6006
:10101C00FB690133FB61FB68DB8C9BB2013B9AB231
:10102C00FB68DA84FB68DB8C9BB2002BCBD13B6872
:10103C0000937B6900224021F86800F014F8034605
:10104C00002B05D0FB68202283F84120032306E007
:10105C00FB68202283F84120002300E0022318467D
:10106C002037BD4680BD80B586B000AFF860B96052
:10107C003B601346FB713BE03B6AB3F1FF3F37D05B
:10108C0000F092F902463B68D31A3A6A9A4202D3AC
:10109C003B6A002B01D103233AE0FB681B68DB6839
:1010AC0003F00403002B23D0BB68802B20D0BB683B
:1010BC00402B1DD0FB681B681B6803F00803082B32
:1010CC0016D100237B61FB681B681B687B61FB6886
:1010DC001B685B687B617B69F86800F01DF8FB6836
:1010EC0008225A64FB68002283F8402001230FE099
:1010FC00FB681B681A68BB681340BA689A420CBF3D
:10110C0001230023DBB21A46FB799A42B4D00023A8
:10111C0018461837BD4680BD80B495B000AF7860D6
:10112C007B681B680C337B637B6B53E8003F3B6332
:10113C003B6B23F49073FB647B681B680C33FA6C79
:10114C003A64FB63F96B3A6C41E80023BB63BB6BFD
:10115C00002BE5D17B681B6814333B623B6A53E878
:10116C00003FFB61FB6923F00103BB647B681B68D8
:10117C001433BA6CFA62BB62B96AFA6A41E80023AA
:10118C007B627B6A002BE5D17B681B6B012B19D131
:10119C007B681B680C33FB60FB6853E8003FBB604B
:1011AC00BB6823F010037B647B681B680C337A6C80
:1011BC00BA617B617969BA6941E800233B613B699B
:1011CC00002BE5D17B68202283F842207B6800222B
:1011DC001A6300BF5437BD4680BC704780B584B0DD
:1011EC0000AF78607B681B681B6923F440517B68F7
:1011FC00DA687B681B680A431A617B689A687B68AB
:10120C001B691A437B685B691343BB607B681B6873
:10121C00DB6823F4B05323F00C037A681268B968C6
:10122C000B43D3607B681B685B6923F440717B685C
:10123C009A697B681B680A435A617B681B682C4A55
:10124C00934203D100F0BCFCF86002E000F0A4FC77
:10125C00F860FA6813469B0013449A001A447B68A2
:10126C005B689B00B2FBF3F3224AA2FB03235B09EE
:10127C001901FA6813469B0013449A001A447B68C0
:10128C005B689B00B2FBF3F21A4BA3FB02035B09F6
:10129C00642000FB03F3D31A1B013233154AA2FB63
:1012AC0003235B0903F0F0031944FA6813469B000F
:1012BC0013449A001A447B685B689B00B2FBF3F200
:1012CC000C4BA3FB02035B09642000FB03F3D31A52
:1012DC001B013233074AA2FB03235B0903F00F0205
:1012EC007B681B680A449A6000BF1037BD4680BDFE
:1012FC00003801401F85EB5180B500AF084B1B68CF
:10130C00074A43F010031360032000F015FF002080
:10131C0000F008F8FFF7F0FC0023184680BD00BF72
:10132C000020024080B582B000AF7860124B1A6882
:10133C00124B1B7819464FF47A73B3FBF1F3B2FBE3
:10134C00F3F3184600F02DFF0346002B01D00123C8
:10135C000EE07B680F2B0AD8002279684FF0FF3023
:10136C0000F0F5FE064A7B681360002300E00123C1
:10137C0018460837BD4680BD080000200400002038
:10138C000000002080B400AF054B1B781A46054BBB
:10139C001B681344034A136000BFBD4680BC7047F2
:1013AC00040000201801002080B400AF024B1B6821
:1013BC001846BD4680BC70471801002080B584B02B
:1013CC0000AF7860FFF7F0FFB8607B68FB60FB68EC
:1013DC00B3F1FF3F05D00A4B1B781A46FB68134448
:1013EC00FB6000BFFFF7E0FF0246BB68D31AFA6848
:1013FC009A42F7D800BF00BF1037BD4680BD00BF72
:10140C000400002080B586B000AF78607B68002BAC
:10141C0001D1012372E27B681B6803F00103002BEE
:10142C0000F08780924B5B6803F00C03042B0CD00C
:10143C008F4B5B6803F00C03082B12D18C4B5B6851
:10144C0003F48033B3F5803F0BD1894B1B6803F455
:10145C000033002B6CD07B685B68002B68D10123B8
:10146C004CE27B685B68B3F5803F06D1804B1B6810
:10147C007F4A43F4803313602EE07B685B68002B5B
:10148C000CD17B4B1B687A4A23F480331360784B66
:10149C001B68774A23F4802313601DE07B685B682C
:1014AC00B3F5A02F0CD1724B1B68714A43F4802307
:1014BC0013606F4B1B686E4A43F4803313600BE070
:1014CC006B4B1B686A4A23F480331360684B1B68B0
:1014DC00674A23F4802313607B685B68002B13D06E
:1014EC00FFF762FF386108E0FFF75EFF02463B69D9
:1014FC00D31A642B01D9032300E25D4B1B6803F460
:10150C000033002BF0D014E0FFF74EFF386108E0F9
:10151C00FFF74AFF02463B69D31A642B01D9032318
:10152C00ECE1534B1B6803F40033002BF0D100E0CB
:10153C0000BF7B681B6803F00203002B63D04C4B8D
:10154C005B6803F00C03002B0BD0494B5B6803F07A
:10155C000C03082B1CD1464B5B6803F48033002B27
:10156C0016D1434B1B6803F00203002B05D07B689C
:10157C001B69012B01D00123C0E13D4B1B6823F0FB
:10158C00F8027B685B69DB00394913430B603AE076
:10159C007B681B69002B20D0364B01221A60FFF7A9
:1015AC0003FF386108E0FFF7FFFE02463B69D31AE0
:1015BC00022B01D90323A1E12D4B1B6803F002037D
:1015CC00002BF0D02A4B1B6823F0F8027B685B6978
:1015DC00DB00274913430B6015E0264B00221A60F1
:1015EC00FFF7E2FE386108E0FFF7DEFE02463B69DA
:1015FC00D31A022B01D9032380E11D4B1B6803F086
:10160C000203002BF0D17B681B6803F00803002B4E
:10161C003AD07B689B69002B19D0174B01221A60BA
:10162C00FFF7C2FE386108E0FFF7BEFE02463B69D9
:10163C00D31A022B01D9032360E10D4B5B6A03F033
:10164C000203002BF0D0012000F0CEFA1CE00A4B74
:10165C0000221A60FFF7A8FE38610FE0FFF7A4FE26
:10166C0002463B69D31A022B08D9032346E100BF7B
:10167C00001002400000424280044242924B5B6ADE
:10168C0003F00203002BE9D17B681B6803F0040311
:10169C00002B00F0A6800023FB758B4BDB6903F05D
:1016AC008053002B0DD1884BDB69874A43F0805364
:1016BC00D361854BDB6903F08053BB60BB680123AE
:1016CC00FB75824B1B6803F48073002B18D17F4B86
:1016DC001B687E4A43F480731360FFF765FE386124
:1016EC0008E0FFF761FE02463B69D31A642B01D96F
:1016FC00032303E1754B1B6803F48073002BF0D0BC
:10170C007B68DB68012B06D16F4B1B6A6E4A43F07A
:10171C00010313622DE07B68DB68002B0CD16A4B54
:10172C001B6A694A23F001031362674B1B6A664A02
:10173C0023F0040313621CE07B68DB68052B0CD1DF
:10174C00614B1B6A604A43F0040313625E4B1B6AD5
:10175C005D4A43F0010313620BE05B4B1B6A5A4A70
:10176C0023F001031362584B1B6A574A23F00403FE
:10177C0013627B68DB68002B15D0FFF715FE386110
:10178C000AE0FFF711FE02463B69D31A41F2883298
:10179C00934201D90323B1E04B4B1B6A03F00203C4
:1017AC00002BEED014E0FFF7FFFD38610AE0FFF7E5
:1017BC00FBFD02463B69D31A41F28832934201D9B0
:1017CC0003239BE0404B1B6A03F00203002BEED17A
:1017DC00FB7D012B05D13C4BDB693B4A23F080534D
:1017EC00D3617B68DB69002B00F08780364B5B682C
:1017FC0003F00C03082B61D07B68DB69022B46D10C
:10180C00334B00221A60FFF7CFFD386108E0FFF779
:10181C00CBFD02463B69D31A022B01D903236DE0A1
:10182C00294B1B6803F00073002BF0D17B681B6AFB
:10183C00B3F5803F08D1244B5B6823F400327B68FE
:10184C009B68214913434B601F4B5B6823F4741254
:10185C007B68196A7B685B6A0B431B4913434B60BB
:10186C001B4B01221A60FFF79FFD386108E0FFF760
:10187C009BFD02463B69D31A022B01D903233DE0A1
:10188C00114B1B6803F00073002BF0D035E0104BAC
:10189C0000221A60FFF788FD386108E0FFF784FD2D
:1018AC0002463B69D31A022B01D9032326E0064BCF
:1018BC001B6803F00073002BF0D11EE07B68DB6922
:1018CC00012B07D1012319E00010024000700040E9
:1018DC00600042420B4B5B68FB60FB6803F4803298
:1018EC007B681B6A9A4206D1FB6803F470127B6812
:1018FC005B6A9A4201D0012300E000231846183796
:10190C00BD4680BD0010024080B584B000AF786049
:10191C0039607B68002B01D10123D0E06A4B1B6836
:10192C0003F007033A689A4210D9674B1B6823F0FF
:10193C00070265493B6813430B60634B1B6803F05C
:10194C0007033A689A4201D00123B8E07B681B6810
:10195C0003F00203002B20D07B681B6803F0040308
:10196C00002B05D0594B5B68584A43F4E063536035
:10197C007B681B6803F00803002B05D0534B5B6896
:10198C00524A43F460535360504B5B6823F0F002AF
:10199C007B689B684D4913434B607B681B6803F065
:1019AC000103002B40D07B685B68012B07D1474BB0
:1019BC001B6803F40033002B15D101237FE07B68F7
:1019CC005B68022B07D1414B1B6803F00073002BA3
:1019DC0009D1012373E03D4B1B6803F00203002B7C
:1019EC0001D101236BE0394B5B6823F003027B6868
:1019FC005B68364913434B60FFF7D6FCF8600AE08E
:101A0C00FFF7D2FC0246FB68D31A41F288329342AC
:101A1C0001D9032353E02D4B5B6803F00C027B6868
:101A2C005B689B009A42EBD1274B1B6803F00703C2
:101A3C003A689A4210D2244B1B6823F007022249C1
:101A4C003B6813430B60204B1B6803F007033A6899
:101A5C009A4201D0012332E07B681B6803F0040337
:101A6C00002B08D0194B5B6823F4E0627B68DB68C1
:101A7C00164913434B607B681B6803F00803002B6B
:101A8C0009D0124B5B6823F460527B681B69DB0046
:101A9C000E4913434B6000F021F802460B4B5B6878
:101AAC001B0903F00F030A49CB5C22FA03F3094A22
:101ABC001360094B1B681846FFF734FC00231846CB
:101ACC001037BD4680BD00BF002002400010024010
:101ADC0084490008080000200000002080B487B072
:101AEC0000AF0023FB600023BB6000237B6100235D
:101AFC007B6000233B611E4B5B68FB60FB6803F063
:101B0C000C03042B02D0082B03D027E0194B3B61AC
:101B1C0027E0FB689B0C03F00F03174AD35C7B6038
:101B2C00FB6803F48033002B10D0114B5B685B0C0B
:101B3C0003F00103114AD35CBB607B680D4A03FBC5
:101B4C0002F2BB68B2FBF3F37B6104E07B680C4AE6
:101B5C0002FB03F37B617B693B6102E0054B3B615C
:101B6C0000BF3B6918461C37BD4680BC704700BFA0
:101B7C000010024000127A007049000880490008E9
:101B8C0000093D0080B400AF024B1B681846BD46EF
:101B9C0080BC70470800002080B500AFFFF7F2FF53
:101BAC000246054B5B681B0A03F007030349CB5C39
:101BBC0022FA03F3184680BD001002409449000835
:101BCC0080B500AFFFF7DEFF0246054B5B68DB0A12
:101BDC0003F007030349CB5C22FA03F3184680BDDC
:101BEC00001002409449000880B485B000AF7860C2
:101BFC000A4B1B680A4AA2FB03235B0A7A6802FBA6
:101C0C0003F3FB6000BFFB685A1EFA60002BF9D18E
:101C1C0000BF00BF1437BD4680BC704708000020D1
:101C2C00D34D621080B48BB000AF78603960002364
:101C3C007B6200233B6269E101227B6A02FA03F3B7
:101C4C00FB613B681B68FA691340BB61BA69FB69AD
:101C5C009A4240F058813B685B689A4A93425ED046
:101C6C00984A934275D8984A934258D0964A9342D0
:101C7C006FD8964A934252D0944A934269D8944A68
:101C8C0093424CD0924A934263D8924A934246D0A4
:101C9C00904A93425DD8122B2AD8122B59D801A204
:101CAC0052F823F02B1D0008051D0008171D000815
:101CBC00591D00085F1D00085F1D00085F1D00080E
:101CCC005F1D00085F1D00085F1D00085F1D0008F8
:101CDC005F1D00085F1D00085F1D00085F1D0008E8
:101CEC005F1D00085F1D00080D1D0008211D000868
:101CFC00794A934213D02CE03B68DB683B6229E0C5
:101D0C003B68DB6804333B6224E03B68DB680833E8
:101D1C003B621FE03B68DB680C333B621AE03B68BC
:101D2C009B68002B02D104233B6213E03B689B6849
:101D3C00012B05D108233B627B68FA691A6109E023
:101D4C0008233B627B68FA695A6103E000233B621B
:101D5C0000E000BFBB69FF2B01D87B6801E07B680A
:101D6C0004337B61BB69FF2B02D87B6A9B0002E0CA
:101D7C007B6A083B9B003B617B691A680F213B69BE
:101D8C0001FA03F3DB431A40396A3B6901FA03F3A6
:101D9C001A437B691A603B685B6803F08053002B25
:101DAC0000F0B1804D4B9B694C4A43F001039361A9
:101DBC004A4B9B6903F00103BB60BB68484A7B6AD2
:101DCC009B08023352F82330FB607B6A03F0030359
:101DDC009B000F2202FA03F3DB43FA681340FB600B
:101DEC007B68404A934213D07B683F4A93420DD0A4
:101DFC007B683E4A934207D07B683D4A934201D1AF
:101E0C00032306E0042304E0022302E0012300E0A4
:101E1C0000237A6A02F0030292009340FA6813439B
:101E2C00FB602F497B6A9B080233FA6841F8232038
:101E3C003B685B6803F48013002B06D02D4B9A682B
:101E4C002C49BB6913438B6006E02A4B9A68BB692B
:101E5C00DB43284913408B603B685B6803F4001339
:101E6C00002B06D0234BDA682249BB691343CB60A5
:101E7C0006E0204BDA68BB69DB431E491340CB609C
:101E8C003B685B6803F40033002B06D0194B5A688F
:101E9C001849BB6913434B6006E0164B5A68BB6983
:101EAC00DB43144913404B603B685B6803F480339D
:101EBC00002B21D00F4B1A680E49BB6913430B60E2
:101ECC0021E000BF00003210000031100000221091
:101EDC000000211000001210000011100010024030
:101EEC000000014000080140000C014000100140BE
:101EFC0000140140000401400B4B1A68BB69DB4322
:101F0C00094913400B607B6A01337B623B681A689A
:101F1C007B6A22FA03F3002B7FF48EAE00BF00BF66
:101F2C002C37BD4680BC70470004014080B483B0A0
:101F3C0000AF78600B467B8013467B707B78002B60
:101F4C0003D07A887B681A6103E07B881A047B686B
:101F5C001A6100BF0C37BD4680BC704780B582B09B
:101F6C0000AF0346FB80084B5A69FB881340002BDB
:101F7C0006D0054AFB885361FB88184600F006F82A
:101F8C0000BF0837BD4680BD0004014080B483B05B
:101F9C0000AF0346FB8000BF0C37BD4680BC7047CA
:101FAC0080B485B000AF78607B6803F00703FB60FA
:101FBC000C4BDB68BB60BA684FF6FF031340BB6089
:101FCC00FB681A02BB68134343F0BF6343F400334E
:101FDC00BB60044ABB68D36000BF1437BD4680BCED
:101FEC00704700BF00ED00E080B400AF044BDB682D
:101FFC001B0A03F007031846BD4680BC704700BFA0
:10200C0000ED00E080B483B000AF0346FB7197F99C
:10201C000730002B0BDBFB7903F01F02064997F905
:10202C0007305B09012000FA02F241F8232000BFBF
:10203C000C37BD4680BC704700E100E080B483B033
:10204C0000AF03463960FB7197F90730002B0ADBB0
:10205C003B68DAB20C4997F907301201D2B20B4443
:10206C0083F800230AE03B68DAB20849FB7903F0F5
:10207C000F03043B1201D2B20B441A7600BF0C378B
:10208C00BD4680BC704700BF00E100E000ED00E001
:10209C0080B489B000AFF860B9607A60FB6803F077
:1020AC000703FB61FB69C3F10703042B28BF04235F
:1020BC00BB61FB690433062B02D9FB69033B00E0CF
:1020CC0000237B614FF0FF32BB6902FA03F3DA4362
:1020DC00BB681A407B699A404FF0FF317B6901FA6B
:1020EC0003F3D9437B680B40134318462437BD4692
:1020FC0080BC704780B582B000AF78607B68013BD4
:10210C00B3F1807F01D301230FE00A4A7B68013BC6
:10211C0053600F214FF0FF30FFF790FF054B00226B
:10212C009A60044B07221A60002318460837BD46F4
:10213C0080BD00BF10E000E080B582B000AF7860D9
:10214C007868FFF72DFF00BF0837BD4680BD80B50E
:10215C0086B000AF0346B9607A60FB7300237B61E5
:10216C00FFF742FF78617A68B9687869FFF790FFEA
:10217C00024697F90F3011461846FFF75FFF00BF74
:10218C001837BD4680BD80B582B000AF0346FB71E9
:10219C0097F907301846FFF735FF00BF0837BD46E3
:1021AC0080BD80B582B000AF78607868FFF7A2FF81
:1021BC00034618460837BD4680BD80B400AF00BF4B
:1021CC00BD4680BC7047000080B584B000AF78601D
:1021DC007B68002B01D101232BE17B6893F83D3008
:1021EC00DBB2002B06D17B68002283F83C20786898
:1021FC00FEF7B4FD7B68242283F83D207B681B68C6
:10220C001A687B681B6822F001021A607B681B68E5
:10221C001A687B681B6842F400421A607B681B6872
:10222C001A687B681B6822F400421A60FFF7B4FC42
:10223C00F8607B685B68814A934207D8FB68804AE8
:10224C00934294BF01230023DBB206E0FB687D4A76
:10225C00934294BF01230023DBB2002B01D0012356
:10226C00E7E0FB68784AA2FB03239B0CBB607B680E
:10227C001B685B6823F03F017B681B68BA680A43E4
:10228C005A607B681B681B6A23F03F017B685B68A4
:10229C006A4A934202D8BB68013309E0BB684FF429
:1022AC00967202FB03F3694AA2FB03239B090133D9
:1022BC007A6812680B4313627B681B68DB6923F432
:1022CC004F4222F0FF027B685B685C498B4219D855
:1022DC00FB68591E7B685B685B00B1FBF3F3591C10
:1022EC0040F6FC730B40002B0AD0FB68591E7B6830
:1022FC005B685B00B1FBF3F30133C3F30B0351E0F9
:10230C0004234FE07B689B68002B11D1FB68581E9F
:10231C007B6859680B465B000B44B0FBF3F301334D
:10232C00C3F30B03002B0CBF01230023DBB212E021
:10233C00FB68581E7B6859680B469B000B44990040
:10234C000B44B0FBF3F30133C3F30B03002B0CBFB3
:10235C0001230023DBB2002B01D0012322E07B6898
:10236C009B68002B0ED1FB68581E7B6859680B4686
:10237C005B000B44B0FBF3F30133C3F30B0343F4E7
:10238C0000430FE0FB68581E7B6859680B469B00A6
:10239C000B4499000B44B0FBF3F30133C3F30B0371
:1023AC0043F44043796809681343CB617B681B682D
:1023BC001B6823F0C0017B68DA697B681B6A1A43CF
:1023CC007B681B680A431A607B681B689B6823F454
:1023DC00034323F0FF037A6811697A68D2681143CA
:1023EC007A6812680B4393607B681B68DB6823F088
:1023FC00FF017B685A697B689B691A437B681B6881
:10240C000A43DA607B681B681A687B681B6842F0B9
:10241C0001021A607B6800221A647B68202283F810
:10242C003D207B6800221A637B68002283F83E20E3
:10243C00002318461037BD4680BD00BFA0860100A2
:10244C007F841E00FF083D0083DE1B43D34D6210CA
:10245C0080B588B002AFF8607A601A460B467B8173
:10246C0013463B81FEF7A0FF7861FB6893F83D3083
:10247C00DBB2202B40F0E0807B6900931923012212
:10248C007049F86801F08AF90346002B01D0022349
:10249C00D3E0FB6893F83C30012B01D10223CCE054
:1024AC00FB68012283F83C20FB681B681B6803F067
:1024BC000103012B07D0FB681B681A68FB681B68BB
:1024CC0042F001021A60FB681B681A68FB681B6803
:1024DC0022F400621A60FB68212283F83D20FB681D
:1024EC00102283F83E20FB6800221A64FB687A688D
:1024FC005A62FB683A895A85FB685B8D9AB2FB6815
:10250C001A85FB68504ADA6279897B693A6AF868FD
:10251C0000F076FE0346002B01D001238DE0002352
:10252C003B61FB681B685B693B61FB681B689B69D3
:10253C003B613B6966E07A69396AF86801F048FAF0
:10254C000346002B0DD0FB681B6C042B07D1FB68DA
:10255C001B681A68FB681B6842F400721A6001233E
:10256C006BE0FB685B6A1A78FB681B681A61FB6896
:10257C005B6A5A1CFB685A62FB685B8D9BB2013B21
:10258C009AB2FB685A85FB681B8D013B9AB2FB68BB
:10259C001A85FB681B685B6903F00403042B1BD1D1
:1025AC00FB681B8D002B17D0FB685B6A1A78FB68E5
:1025BC001B681A61FB685B6A5A1CFB685A62FB68F1
:1025CC005B8D9BB2013B9AB2FB685A85FB681B8DF5
:1025DC00013B9AB2FB681A857A69396AF86801F08E
:1025EC003FFA0346002B0DD0FB681B6C042B07D164
:1025FC00FB681B681A68FB681B6842F400721A605F
:10260C0001231AE0FB681B8D002B94D1FB681B681F
:10261C001A68FB681B6842F400721A60FB6820227F
:10262C0083F83D20FB68002283F83E20FB680022E3
:10263C0083F83C20002300E0022318461837BD46DF
:10264C0080BD00BF020010000000FFFF80B58CB001
:10265C0002AFF8607A601A460B467B8113463B81C9
:10266C0000233B62FEF7A0FE7862FB6893F83D30D6
:10267C00DBB2202B40F04B827B6A009319230122A2
:10268C007F49F86801F08AF80346002B01D0022339
:10269C003EE2FB6893F83C30012B01D1022337E278
:1026AC00FB68012283F83C20FB681B681B6803F065
:1026BC000103012B07D0FB681B681A68FB681B68B9
:1026CC0042F001021A60FB681B681A68FB681B6801
:1026DC0022F400621A60FB68222283F83D20FB681A
:1026EC00102283F83E20FB6800221A64FB687A688B
:1026FC005A62FB683A895A85FB685B8D9AB2FB6813
:10270C001A85FB685F4ADA6279897B6A3A6BF868EA
:10271C0000F0F8FD0346002B01D00123F8E1FB6823
:10272C001B8D002B13D10023FB61FB681B685B69BD
:10273C00FB61FB681B689B69FB61FB69FB681B68A1
:10274C001A68FB681B6842F400721A60CCE1FB68E3
:10275C001B8D012B1ED1FB681B681A68FB681B685C
:10276C0022F480621A6072B600BF0023BB61FB6862
:10277C001B685B69BB61FB681B689B69BB61BB69C0
:10278C00FB681B681A68FB681B6842F400721A60CD
:10279C0062B635E0FB681B8D022B1ED1FB681B68F3
:1027AC001A68FB681B6842F400621A6072B600BFBC
:1027BC0000237B61FB681B685B697B61FB681B68A2
:1027CC009B697B617B69FB681B681A68FB681B68EB
:1027DC0022F480621A6062B612E0FB681B681A6809
:1027EC00FB681B6842F480621A6000233B61FB6843
:1027FC001B685B693B61FB681B689B693B613B69C0
:10280C0072E1FB681B8D032B00F21F81FB681B8D93
:10281C00012B23D17A6A396BF86801F069F9034608
:10282C00002B01D0012373E1FB681B681A69FB685C
:10283C005B6AD2B21A70FB685B6A5A1CFB685A62FC
:10284C00FB681B8D013B9AB2FB681A85FB685B8D9C
:10285C009BB2013B9AB2FB685A8545E1FB681B8D24
:10286C00022B52D17B6A00933B6B00220649F8681D
:10287C0000F094FF0346002B08D0012348E100BF71
:10288C00020010000000FFFF0400010072B600BF40
:10289C00FB681B681A68FB681B6842F400721A60BC
:1028AC00FB681B681A69FB685B6AD2B21A70FB681A
:1028BC005B6A5A1CFB685A62FB681B8D013B9AB21F
:1028CC00FB681A85FB685B8D9BB2013B9AB2FB6877
:1028DC005A8562B600BFFB681B681A69FB685B6AA5
:1028EC00D2B21A70FB685B6A5A1CFB685A62FB68AE
:1028FC001B8D013B9AB2FB681A85FB685B8D9BB202
:10290C00013B9AB2FB685A85EEE07B6A00933B6B05
:10291C0000228149F86800F041FF0346002B01D0EA
:10292C000123F5E0FB681B681A68FB681B6822F43E
:10293C0080621A6072B600BFFB681B681A69FB687C
:10294C005B6AD2B21A70FB685B6A5A1CFB685A62EB
:10295C00FB681B8D013B9AB2FB681A85FB685B8D8B
:10296C009BB2013B9AB2FB685A856C4B1B68DB0827
:10297C006B4AA2FB03231A0A13469B001344DA008A
:10298C00D31A3B623B6A013B3B623B6A002B18D17A
:10299C00FB6800221A63FB68202283F83D20FB6849
:1029AC00002283F83E20FB681B6C43F02002FB687E
:1029BC001A6462B600BFFB68002283F83C20012336
:1029CC00A6E0FB681B685B6903F00403042BD9D1F8
:1029DC00FB681B681A68FB681B6842F400721A607B
:1029EC00FB681B681A69FB685B6AD2B21A70FB68D9
:1029FC005B6A5A1CFB685A62FB681B8D013B9AB2DE
:102A0C00FB681A85FB685B8D9BB2013B9AB2FB6835
:102A1C005A8562B600BFFB681B681A69FB685B6A63
:102A2C00D2B21A70FB685B6A5A1CFB685A62FB686C
:102A3C001B8D013B9AB2FB681A85FB685B8D9BB2C0
:102A4C00013B9AB2FB685A854EE07A6A396BF8689A
:102A5C0001F04EF80346002B01D0012358E0FB682F
:102A6C001B681A69FB685B6AD2B21A70FB685B6AF6
:102A7C005A1CFB685A62FB681B8D013B9AB2FB68BF
:102A8C001A85FB685B8D9BB2013B9AB2FB685A8539
:102A9C00FB681B685B6903F00403042B24D1FB68FF
:102AAC001B8D032B07D1FB681B681A68FB681B681E
:102ABC0022F480621A60FB681B681A69FB685B6A07
:102ACC00D2B21A70FB685B6A5A1CFB685A62FB68CC
:102ADC001B8D013B9AB2FB681A85FB685B8D9BB220
:102AEC00013B9AB2FB685A85FB681B8D002B7FF467
:102AFC0088AEFB68202283F83D20FB68002283F817
:102B0C003E20FB68002283F83C20002300E00223D7
:102B1C0018462837BD4680BD04000100080000207F
:102B2C0089B5F81480B588B002AFF8600846114634
:102B3C001A4603467B810B463B811346FB80FEF70E
:102B4C0033FC7861FB6893F83D30DBB2202B40F00E
:102B5C00D9807B690093192301226D49F86800F034
:102B6C001DFE0346002B01D00223CCE0FB6893F83A
:102B7C003C30012B01D10223C5E0FB68012283F814
:102B8C003C20FB681B681B6803F00103012B07D07A
:102B9C00FB681B681A68FB681B6842F001021A602C
:102BAC00FB681B681A68FB681B6822F400621A60D9
:102BBC00FB68212283F83D20FB68402283F83E20ED
:102BCC00FB6800221A64FB683A6A5A62FB68BA8C8A
:102BDC005A85FB685B8D9AB2FB681A85FB684D4A77
:102BEC00DA62F8883A8979897B690193BB6A009328
:102BFC000346F86800F054FC0346002B52D0012326
:102C0C0081E07A69B96AF86800F0E2FE0346002BAD
:102C1C000DD0FB681B6C042B07D1FB681B681A6872
:102C2C00FB681B6842F400721A6001236BE0FB68BE
:102C3C005B6A1A78FB681B681A61FB685B6A5A1C32
:102C4C00FB685A62FB681B8D013B9AB2FB681A85C4
:102C5C00FB685B8D9BB2013B9AB2FB685A85FB68A3
:102C6C001B685B6903F00403042B1BD1FB681B8DF1
:102C7C00002B17D0FB685B6A1A78FB681B681A611B
:102C8C00FB685B6A5A1CFB685A62FB681B8D013B34
:102C9C009AB2FB681A85FB685B8D9BB2013B9AB2BA
:102CAC00FB685A85FB681B8D002BAAD17A69B96A1F
:102CBC00F86800F0D5FE0346002B0DD0FB681B6CAA
:102CCC00042B07D1FB681B681A68FB681B6842F46D
:102CDC0000721A60012316E0FB681B681A68FB6817
:102CEC001B6842F400721A60FB68202283F83D20B6
:102CFC00FB68002283F83E20FB68002283F83C200E
:102D0C00002300E0022318461837BD4680BD00BFE3
:102D1C00020010000000FFFF80B58CB002AFF8601D
:102D2C00084611461A4603467B810B463B811346E7
:102D3C00FB8000233B62FEF737FB7862FB6893F85D
:102D4C003D30DBB2202B40F050827B6A009319237C
:102D5C0001228249F86800F021FD0346002B01D0C6
:102D6C00022343E2FB6893F83C30012B01D1022390
:102D7C003CE2FB68012283F83C20FB681B681B6863
:102D8C0003F00103012B07D0FB681B681A68FB6872
:102D9C001B6842F001021A60FB681B681A68FB682A
:102DAC001B6822F400621A60FB68222283F83D2023
:102DBC00FB68402283F83E20FB6800221A64FB6803
:102DCC003A6B5A62FB68BA8E5A85FB685B8D9AB275
:102DDC00FB681A85FB68624ADA62F8883A89798955
:102DEC007B6A0193BB6B00930346F86800F0EEFB23
:102DFC000346002B01D00123F8E1FB681B8D002B4F
:102E0C0013D10023FB61FB681B685B69FB61FB68EA
:102E1C001B689B69FB61FB69FB681B681A68FB6894
:102E2C001B6842F400721A60CCE1FB681B8D012B0D
:102E3C001ED1FB681B681A68FB681B6822F4806251
:102E4C001A6072B600BF0023BB61FB681B685B692C
:102E5C00BB61FB681B689B69BB61BB69FB681B683A
:102E6C001A68FB681B6842F400721A6062B635E09F
:102E7C00FB681B8D022B1ED1FB681B681A68FB6854
:102E8C001B6842F400621A6072B600BF00237B61BB
:102E9C00FB681B685B697B61FB681B689B697B61DA
:102EAC007B69FB681B681A68FB681B6822F48062EC
:102EBC001A6062B612E0FB681B681A68FB681B6834
:102ECC0042F480621A6000233B61FB681B685B69FB
:102EDC003B61FB681B689B693B613B6972E1FB686A
:102EEC001B8D032B00F21F81FB681B8D012B23D143
:102EFC007A6AB96BF86800F0FBFD0346002B01D031
:102F0C00012373E1FB681B681A69FB685B6AD2B228
:102F1C001A70FB685B6A5A1CFB685A62FB681B8D53
:102F2C00013B9AB2FB681A85FB685B8D9BB2013B37
:102F3C009AB2FB685A8545E1FB681B8D022B52D176
:102F4C007B6A0093BB6B00220649F86800F026FCF4
:102F5C000346002B08D0012348E100BF02001000FB
:102F6C000000FFFF0400010072B600BFFB681B6885
:102F7C001A68FB681B6842F400721A60FB681B68D5
:102F8C001A69FB685B6AD2B21A70FB685B6A5A1CDE
:102F9C00FB685A62FB681B8D013B9AB2FB681A8571
:102FAC00FB685B8D9BB2013B9AB2FB685A8562B69B
:102FBC0000BFFB681B681A69FB685B6AD2B21A70A7
:102FCC00FB685B6A5A1CFB685A62FB681B8D013BF1
:102FDC009AB2FB681A85FB685B8D9BB2013B9AB277
:102FEC00FB685A85EEE07B6A0093BB6B002281493B
:102FFC00F86800F0D3FB0346002B01D00123F5E069
:10300C00FB681B681A68FB681B6822F480621A60F4
:10301C0072B600BFFB681B681A69FB685B6AD2B2A8
:10302C001A70FB685B6A5A1CFB685A62FB681B8D42
:10303C00013B9AB2FB681A85FB685B8D9BB2013B26
:10304C009AB2FB685A856C4B1B68DB086B4AA2FB77
:10305C0003231A0A13469B001344DA00D31A3B626B
:10306C003B6A013B3B623B6A002B18D1FB68002298
:10307C001A63FB68202283F83D20FB68002283F84A
:10308C003E20FB681B6C43F02002FB681A6462B69E
:10309C0000BFFB68002283F83C200123A6E0FB68FC
:1030AC001B685B6903F00403042BD9D1FB681B6814
:1030BC001A68FB681B6842F400721A60FB681B6894
:1030CC001A69FB685B6AD2B21A70FB685B6A5A1C9D
:1030DC00FB685A62FB681B8D013B9AB2FB681A8530
:1030EC00FB685B8D9BB2013B9AB2FB685A8562B65A
:1030FC0000BFFB681B681A69FB685B6AD2B21A7066
:10310C00FB685B6A5A1CFB685A62FB681B8D013BAF
:10311C009AB2FB681A85FB685B8D9BB2013B9AB235
:10312C00FB685A854EE07A6AB96BF86800F0E0FCEF
:10313C000346002B01D0012358E0FB681B681A6979
:10314C00FB685B6AD2B21A70FB685B6A5A1CFB683C
:10315C005A62FB681B8D013B9AB2FB681A85FB68AF
:10316C005B8D9BB2013B9AB2FB685A85FB681B686E
:10317C005B6903F00403042B24D1FB681B8D032B28
:10318C0007D1FB681B681A68FB681B6822F4806215
:10319C001A60FB681B681A69FB685B6AD2B21A700A
:1031AC00FB685B6A5A1CFB685A62FB681B8D013B0F
:1031BC009AB2FB681A85FB685B8D9BB2013B9AB295
:1031CC00FB685A85FB681B8D002B7FF488AEFB686F
:1031DC00202283F83D20FB68002283F83E20FB6808
:1031EC00002283F83C20002300E0022318462837F5
:1031FC00BD4680BD040001000800002089B5F8140C
:10320C0080B588B002AFF8607A603B600B467B817A
:10321C00FB68DB6A7B617B69082B06D07B69012B21
:10322C0003D07B6913F5803F08D1FB681B681A68D3
:10323C00FB681B6842F480721A600BE0FB681B6B26
:10324C00122B07D1FB681B681A68FB681B6842F4D9
:10325C0080721A603B6800937B6800224FF001116A
:10326C00F86800F09BFA0346002B0DD0FB681B6836
:10327C001B6803F48073B3F5807F03D1FB684FF4B4
:10328C0000721A64032335E0FB681B69B3F5804FA9
:10329C0008D17B89DBB21A46FB681B6802F0FE0280
:1032AC001A611BE07B89DB11DBB203F00603DBB296
:1032BC0063F00F03DAB2FB681B681A613B687A682B
:1032CC000E49F86800F0E4FA0346002B01D0012304
:1032DC0010E07B89DAB2FB681B681A613B687A687C
:1032EC000749F86800F0D4FA0346002B01D00123FB
:1032FC0000E0002318461837BD4680BD08000100C9
:10330C000200010080B588B002AFF8607A603B60C3
:10331C000B467B81FB68DB6A7B61FB681B681A6868
:10332C00FB681B6842F480621A607B69082B06D02C
:10333C007B69012B03D07B6913F5803F08D1FB68B7
:10334C001B681A68FB681B6842F480721A600BE0F9
:10335C00FB681B6B112B07D1FB681B681A68FB6899
:10336C001B6842F480721A603B6800937B680022F1
:10337C004FF00111F86800F011FA0346002B0DD044
:10338C00FB681B681B6803F48073B3F5807F03D163
:10339C00FB684FF400721A64032379E0FB681B6925
:1033AC00B3F5804F08D17B89DBB243F00103DAB26D
:1033BC00FB681B681A615FE07B89DB11DBB203F0F1
:1033CC000603DBB263F00F03DAB2FB681B681A6109
:1033DC003B687A683049F86800F05AFA0346002BCB
:1033EC0001D0012354E07B89DAB2FB681B681A61B7
:1033FC003B687A682949F86800F04AFA0346002BC2
:10340C0001D0012344E000233B61FB681B685B692E
:10341C003B61FB681B689B693B613B69FB681B68F4
:10342C001A68FB681B6842F480721A603B68009350
:10343C007B6800224FF00111F86800F0AFF90346E9
:10344C00002B0DD0FB681B681B6803F48073B3F56D
:10345C00807F03D1FB684FF400721A64032317E0DA
:10346C007B89DB11DBB203F00603DBB263F00E03E6
:10347C00DAB2FB681B681A613B687A680749F8681E
:10348C0000F006FA0346002B01D0012300E00023D4
:10349C0018461837BD4680BD080001000200010027
:1034AC0080B588B002AFF860084611461A4603464C
:1034BC007B810B463B811346FB80FB681B681A68BB
:1034CC00FB681B6842F480721A607B6A00933B6A4B
:1034DC0000224FF00111F86800F060F90346002B50
:1034EC000DD0FB681B681B6803F48073B3F5807FF9
:1034FC0003D1FB684FF400721A6403235FE07B89ED
:10350C00DBB21A46FB681B6802F0FE021A617B6A8A
:10351C003A6A2D49F86800F0BBF90346002B01D03C
:10352C0001234CE000237B61FB681B685B697B61BA
:10353C00FB681B689B697B617B697A6A396AF868EE
:10354C0000F046FA0346002B0DD0FB681B6C042BD5
:10355C0007D1FB681B681A68FB681B6842F4007291
:10356C001A6001232BE0FB88012B05D13B89DAB2D1
:10357C00FB681B681A6121E03B891B0A9BB2DAB21B
:10358C00FB681B681A617A6A396AF86800F020FADD
:10359C000346002B0DD0FB681B6C042B07D1FB687A
:1035AC001B681A68FB681B6842F400721A600123DE
:1035BC0005E03B89DAB2FB681B681A6100231846E8
:1035CC001837BD4680BD00BF0200010080B588B031
:1035DC0002AFF860084611461A4603467B810B463B
:1035EC003B811346FB80FB681B681A68FB681B68F1
:1035FC0042F480621A60FB681B681A68FB681B68DF
:10360C0042F480721A607B6A00933B6A00224FF08E
:10361C000111F86800F0C2F80346002B0DD0FB68CE
:10362C001B681B6803F48073B3F5807F03D1FB68C0
:10363C004FF400721A640323AAE07B89DBB21A46AA
:10364C00FB681B6802F0FE021A617B6A3A6A5249F7
:10365C00F86800F01DF90346002B01D0012397E018
:10366C0000237B61FB681B685B697B61FB681B68E3
:10367C009B697B617B697A6A396AF86800F0A8F902
:10368C000346002B0DD0FB681B6C042B07D1FB6889
:10369C001B681A68FB681B6842F400721A600123ED
:1036AC0076E0FB88012B05D13B89DAB2FB681B68FD
:1036BC001A6121E03B891B0A9BB2DAB2FB681B68DA
:1036CC001A617A6A396AF86800F082F90346002BAD
:1036DC000DD0FB681B6C042B07D1FB681B681A68A8
:1036EC00FB681B6842F400721A60012350E03B89AE
:1036FC00DAB2FB681B681A617A6A396AF86800F0FA
:10370C0067F90346002B0DD0FB681B6C042B07D10B
:10371C00FB681B681A68FB681B6842F400721A602D
:10372C00012335E0FB681B681A68FB681B6842F4D0
:10373C0080721A607B6A00933B6A00224FF0011181
:10374C00F86800F02BF80346002B0DD0FB681B68C3
:10375C001B6803F48073B3F5807F03D1FB684FF4CF
:10376C0000721A64032313E07B89DBB243F001037C
:10377C00DAB2FB681B681A617B6A3A6A0649F86818
:10378C0000F086F80346002B01D0012300E0002353
:10379C0018461837BD4680BD0200010080B584B0C4
:1037AC0000AFF860B9603B601346FB7148E03B68C2
:1037BC00B3F1FF3F44D0FDF7F7FD0246BB69D31AC6
:1037CC003A689A4202D33B68002B39D1BB681B0C78
:1037DC00DBB2012B0DD1FB681B685B69DA43BB685C
:1037EC0013409BB2002B0CBF01230023DBB21A4603
:1037FC000CE0FB681B689B69DA43BB6813409BB207
:10380C00002B0CBF01230023DBB21A46FB799A4232
:10381C0016D1FB6800221A63FB68202283F83D2036
:10382C00FB68002283F83E20FB681B6C43F02002EF
:10383C00FB681A64FB68002283F83C20012323E018
:10384C00BB681B0CDBB2012B0DD1FB681B685B69E1
:10385C00DA43BB6813409BB2002B0CBF012300233F
:10386C00DBB21A460CE0FB681B689B69DA43BB6849
:10387C0013409BB2002B0CBF01230023DBB21A4672
:10388C00FB799A4293D0002318461037BD4680BD71
:10389C0080B584B000AFF860B9607A603B6071E0CD
:1038AC00FB681B685B6903F48063B3F5806F23D1FD
:1038BC00FB681B681A68FB681B6842F400721A608C
:1038CC00FB681B686FF480625A61FB6800221A6304
:1038DC00FB68202283F83D20FB68002283F83E2001
:1038EC00FB681B6C43F00402FB681A64FB68002243
:1038FC0083F83C20012367E07B68B3F1FF3F41D0A4
:10390C00FDF752FD02463B68D31A7A689A4202D3FD
:10391C007B68002B36D1BB681B0CDBB2012B0CD1A6
:10392C00FB681B685B69DA43BB6813409BB2002BD6
:10393C0014BF01230023DBB20BE0FB681B689B69FF
:10394C00DA43BB6813409BB2002B14BF0123002346
:10395C00DBB2002B16D0FB6800221A63FB68202216
:10396C0083F83D20FB68002283F83E20FB681B6C2B
:10397C0043F02002FB681A64FB68002283F83C20A9
:10398C00012321E0BB681B0CDBB2012B0CD1FB68C3
:10399C001B685B69DA43BB6813409BB2002B14BFF6
:1039AC0001230023DBB20BE0FB681B689B69DA4345
:1039BC00BB6813409BB2002B14BF01230023DBB266
:1039CC00002B7FF46DAF002318461037BD4680BD29
:1039DC0080B584B000AFF860B9607A6034E0F86804
:1039EC0000F0E3F80346002B01D0012334E0BB6860
:1039FC00B3F1FF3F28D0FDF7D7FC02467B68D31A02
:103A0C00BA689A4202D3BB68002B1DD1FB681B68B5
:103A1C005B6903F08003802B16D0FB6800221A63CD
:103A2C00FB68202283F83D20FB68002283F83E20AF
:103A3C00FB681B6C43F02002FB681A64FB680022D5
:103A4C0083F83C20012307E0FB681B685B6903F0EB
:103A5C008003802BC3D1002318461037BD4680BD90
:103A6C0080B584B000AFF860B9607A6034E0F86873
:103A7C0000F09BF80346002B01D0012334E0BB6817
:103A8C00B3F1FF3F28D0FDF78FFC02467B68D31AB9
:103A9C00BA689A4202D3BB68002B1DD1FB681B6825
:103AAC005B6903F00403042B16D0FB6800221A6335
:103ABC00FB68202283F83D20FB68002283F83E201F
:103ACC00FB681B6C43F02002FB681A64FB68002245
:103ADC0083F83C20012307E0FB681B685B6903F05B
:103AEC000403042BC3D1002318461037BD4680BDF8
:103AFC0080B584B000AFF860B9607A6049E0FB68CB
:103B0C001B685B6903F01003102B19D1FB681B6851
:103B1C006FF010025A61FB6800221A63FB682022C6
:103B2C0083F83D20FB68002283F83E20FB681A6C6A
:103B3C00FB681A64FB68002283F83C20012330E008
:103B4C00FDF732FC02467B68D31ABA689A4202D35C
:103B5C00BB68002B1DD1FB681B685B6903F040033D
:103B6C00402B16D0FB6800221A63FB68202283F8D6
:103B7C003D20FB68002283F83E20FB681B6C43F061
:103B8C002002FB681A64FB68002283F83C200123A6
:103B9C0007E0FB681B685B6903F04003402BAED168
:103BAC00002318461037BD4680BD80B483B000AFEB
:103BBC0078607B681B685B6903F48063B3F5806F86
:103BCC001BD17B681B686FF480625A617B68002292
:103BDC001A637B68202283F83D207B68002283F8DF
:103BEC003E207B681B6C43F004027B681A647B6884
:103BFC00002283F83C20012300E0002318460C37F8
:103C0C00BD4680BC7047000080B586B002AF03464D
:103C1C003960FB71FB793B7303237B73AE23FB731E
:103C2C00FB7B99B207F10C024FF0FF330093012399
:103C3C001348FEF70DFC0346BB73BB7B002B02D075
:103C4C004FF0FF3318E0AF23FB73FB7B99B207F106
:103C5C000C024FF0FF33009301230948FEF7F6FCEA
:103C6C000346BB73BB7B002B02D04FF0FF3303E04A
:103C7C003A7B3B681A70002318461037BD4680BD4E
:103C8C002800002080B586B002AF03460A46FB71BF
:103C9C001346BB71FB793B73BB797B73AE23FB7310
:103CAC00FB7B99B207F10C024FF0FF330093022318
:103CBC000448FEF7CDFB0346BB73BB7B184610379D
:103CCC00BD4680BD2800002080B584B000AF0346FF
:103CDC00FB710023FB7307F10E0319460920FFF754
:103CEC0093FF0346FB7397F90F30B3F1FF3F2CD0D2
:103CFC00BB7B23F00703DBB2BB73FB79022B12D027
:103D0C00022B24DC002B02D0012B06D01FE0BB7B46
:103D1C0043F00203DBB2BB730BE0BB7B43F003034A
:103D2C00DBB2BB7305E0BB7B43F00703DBB2BB73B9
:103D3C0000BFBB7B19460920FFF7A4FF0346002BED
:103D4C0007D1064AFB79137004E000BF02E000BF04
:103D5C0000E000BF1037BD4680BD00BF240100202D
:103D6C0080B582B000AFBB1D19460920FFF74CFF90
:103D7C000346FB7197F90730B3F1FF3F11D0BB79C4
:103D8C0023F04003DBB2BB71BB7943F04003DBB2E1
:103D9C00BB71BB7919460920FFF774FF0346002B52
:103DAC0000E000BF0837BD4680BD000080B584B080
:103DBC0000AF03463960FB710023BB730023FB7318
:103DCC00FB79012B02D0022B03D005E00C23FB73F3
:103DDC0002E00D23FB7300BF3868FCF71DFB4FF0AE
:103DEC0000020B4BFCF770FB02460B4610461946C3
:103DFC00FCF77CFD0346BB73BA7BFB7B1146184674
:103E0C00FFF740FF0346002B1037BD4680BD00BFB7
:103E1C000000144080B584B000AF0346FB71002352
:103E2C00FB7307F10E0319460A20FFF7EDFE03465C
:103E3C00FB7397F90F30B3F1FF3F15D0BB7B23F029
:103E4C001C03DBB2BB73FB799B005AB2BB7B5BB22E
:103E5C0013435BB2DBB2BB73BB7B19460A20FFF783
:103E6C0011FF0346002B00E000BF1037BD4680BD9C
:103E7C0080B584B000AF0346FB710023FB7307F1E0
:103E8C000E0319460A20FFF7BFFE0346FB7397F992
:103E9C000F30B3F1FF3F32D0BB7B23F00303DBB217
:103EAC00BB73FB79042B22D801A252F823F000BF7C
:103EBC00D13E0008D73E0008E33E0008EF3E000864
:103ECC00FB3E0008BB7BBB7311E0BB7B43F00103E3
:103EDC00DBB2BB730BE0BB7B43F00203DBB2BB7307
:103EEC0005E0BB7B43F00303DBB2BB7300BFBB7BC2
:103EFC0019460A20FFF7C6FE0346002B00E000BF60
:103F0C001037BD4680BD00BF80B500AF0021042036
:103F1C00FFF7B8FE00210620FFF7B4FE00210520B4
:103F2C00FFF7B0FE00BF80BD80B500AF0F210820A9
:103F3C00FFF7A8FE00210220FFF7A4FE00BF80BD02
:103F4C0080B588B002AF78600623FB7507233B72FF
:103F5C00AE23BB75BB7D99B207F108024FF0FF335E
:103F6C00009301231748FEF773FAAF23BB75BB7D93
:103F7C0099B2FB7D9BB207F108024FF0FF30009025
:103F8C001048FEF763FB104B00221A600E4B002208
:103F9C005A603B7B1B027A7B13431A460A4B1A600E
:103FAC007B7A1B023A7A13431A46074B5A607B689A
:103FBC00054A92E8030083E8030078681837BD4689
:103FCC0080BD00BF280000201C01002080B400AF81
:103FDC0000BFBD4680BC704780B400AF72B600BF56
:103FEC0000BFFDE780B500AF114B124A1A60104BB1
:103FFC004FF4E1325A600E4B00229A600C4B0022B7
:10400C00DA600B4B00221A61094B0C225A61084BE7
:10401C0000229A61064B0022DA610548FCF748FF42
:10402C000346002B01D0FFF7D7FF00BF80BD00BFB8
:10403C00280100200044004080B582B000AF7860B9
:10404C007868FCF77DF803469AB24FF0FF33796835
:10405C000348FCF77DFF00BF0837BD4680BD00BF9D
:10406C002801002090B587B000AFF8607A601A463E
:10407C000B46FB7213463B81FB68002B02D14FF0C1
:10408C00FF3309E0FB685C68FB68D8683B89F97A08
:10409C007A68A04778617B6918461C37BD4690BD8D
:1040AC0090B587B000AFF8607A601A460B46FB7289
:1040BC0013463B81FB68002B02D14FF0FF3309E024
:1040CC00FB681C68FB68D8683B89F97A7A68A0475A
:1040DC0078617B6918461C37BD4690BD80B586B0AB
:1040EC0000AF78600B46FB7007F110020123202112
:1040FC007868FFF7B7FF78617B69002B18D1FB78E4
:10410C009B0803F00303DAB23B7C62F383033B743A
:10411C00FB7803F00303DAB23B7C62F301033B74DC
:10412C0007F11002012320217868FFF7B9FF7861AD
:10413C007B69002B07D107F10C020123252178683C
:10414C00FFF790FF78617B69002B10D1FB781B097E
:10415C0003F00103DAB23B7B62F382033B7307F19A
:10416C000C02012325217868FFF79AFF78617B699F
:10417C0018461837BD4680BD80B586B000AF786054
:10418C000B46FB7007F11002012320217868FFF722
:10419C0069FF78617B69002B0FD1FB7803F00F036B
:1041AC00DAB23B7C62F307133B7407F11002012374
:1041BC0020217868FFF774FF78617B69002B07D1A9
:1041CC0007F10C02012322217868FFF74BFF78617D
:1041DC007B69002B10D1FB781B0903F00303DAB2C7
:1041EC003B7B62F301033B7307F10C020123222199
:1041FC007868FFF755FF78617B6918461837BD461C
:10420C0080BD80B584B000AF78600B46FB7007F1C1
:10421C000802012325217868FFF724FFF860FB686A
:10422C00002B0FD1FB7803F00303DAB23B7A62F375
:10423C0005133B7207F10802012325217868FFF76B
:10424C002FFFF860FB6818461037BD4680BD80B55F
:10425C0084B000AF7860396005233A6837217868FC
:10426C00FFF700FFF860FB6818461037BD4680BDAD
:10427C0080B584B000AF7860396001233A680F21B3
:10428C007868FFF7EFFEF860FB6818461037BD46FC
:10429C0080BD80B584B000AF78600B46FB7007F131
:1042AC000802012321217868FFF7DCFEF860FB6827
:1042BC00002B0FD1FB7803F00103DAB23B7A62F3E7
:1042CC0086133B7207F10802012321217868FFF75E
:1042DC00E7FEF860FB6818461037BD4680BD80B518
:1042EC0084B000AF7860396007F108020123212106
:1042FC007868FFF7B7FEF8603B7AC3F38013DBB244
:10430C001A463B681A70FB6818461037BD4680BDCC
:10431C0080B586B000AF78600B46FB7007F11002D9
:10432C00012325217868FFF79DFE78617B69002BBE
:10433C0010D1FB781B0903F00103DAB23B7C62F36A
:10434C00C3033B7407F11002012325217868FFF7A2
:10435C00A7FE78617B69002B07D107F10C020123C2
:10436C003F217868FFF77EFE78617B69002B0FD1C7
:10437C00FB7803F00103DAB23B7B62F304133B736B
:10438C0007F10C0201233F217868FFF789FE786161
:10439C007B6918461837BD4680BD80B584B000AF28
:1043AC0078600B46FB7007F1080201232521786821
:1043BC00FFF758FEF860FB68002B0FD1FB7803F079
:1043CC000303DAB23B7A62F387133B7207F10802FC
:1043DC00012325217868FFF763FEF860FB68184617
:1043EC001037BD4680BD80B586B000AF78603960AF
:1043FC0007F11002012324217868FFF733FE78615E
:10440C007B69002B07D107F10C0201233F2178684F
:10441C00FFF728FE78617B69002B3ED13B681B7847
:10442C00C3F3C003DAB23B681B78C3F30013DBB2EF
:10443C001343DAB23B681B78C3F34013DBB213436C
:10444C00DAB23B681B78C3F38013DBB21343DAB2E6
:10445C003B681B78C3F3C013DBB21343DAB23B7C6B
:10446C00C3F3C013DBB21343DAB23B7CC3F3801348
:10447C00DBB21343DBB2002B04D03B7B43F02003B5
:10448C003B7303E03B7B6FF345133B7301233A68AB
:10449C0023217868FFF704FE78617B69002B07D134
:1044AC0007F10C0201233F217868FFF7F9FD7861D1
:1044BC007B6918461837BD4680BD80B584B000AF07
:1044CC007860396001233A6823217868FFF7CAFDC8
:1044DC00F860FB6818461037BD4680BD80B584B0C7
:1044EC0000AF78600B46FB7007F108020123342102
:1044FC007868FFF7B7FDF860FB68002B0FD1FB78ED
:10450C0003F03F03DAB23B7A62F305033B7207F127
:10451C000802012334217868FFF7C2FDF860FB68BC
:10452C0018461037BD4680BD80B584B000AF7860AA
:10453C000B46FB7007F10802012335217868FFF761
:10454C0091FDF860FB68002B0FD1FB7803F003039F
:10455C00DAB23B7A62F346133B7207F1080201238D
:10456C0035217868FFF79CFDF860FB68184610371A
:10457C00BD4680BD80B584B000AF78600B46FB7043
:10458C0007F1080201233F217868FFF76BFDF86003
:10459C00FB68002B0FD1FB7803F00103DAB23B7AF6
:1045AC0062F3C3033B7207F1080201233F217868D1
:1045BC00FFF776FDF860FB6818461037BD4680BDE6
:1045CC0080B586B000AF78600B46FB7007F1100227
:1045DC00012334217868FFF745FD78617B69002B56
:1045EC0007D107F10C02012335217868FFF73AFD5A
:1045FC0078617B69002B0FD1FB7803F00103DAB2F1
:10460C003B7C62F386133B7407F1100201233421C7
:10461C007868FFF745FD78617B69002B10D1FB783A
:10462C005B0803F00103DAB23B7B62F304133B73C8
:10463C0007F10C02012335217868FFF731FD786111
:10464C007B6918461837BD4680BD80B584B000AF75
:10465C0078600B46FB7007F108020123352178685E
:10466C00FFF700FDF860FB68002B0FD1FB7803F01F
:10467C000F03DAB23B7A62F303033B7207F10802D1
:10468C00012335217868FFF70BFDF860FB681846AD
:10469C001037BD4680BD000080B588B000AF4B4BD5
:1046AC003B614B4B7B614B4BBB614B4BFB61142018
:1046BC0000F0D8F807F1100348491846FFF7D8FD69
:1046CC00464B1B78442B01D000BFFDE707F11003CC
:1046DC0001211846FFF7DDFD07F11003404918468C
:1046EC00FFF7FDFD3E4B1B78002BF5D107F11003B6
:1046FC0000211846FFF785FD07F11003002118462D
:10470C00FFF706FE07F1100300211846FFF745FEE0
:10471C0007F1100310211846FFF7E0FC07F1100316
:10472C0001211846FFF700FF07F11003012118467D
:10473C00FFF78BFF07F1100308211846FFF7CEFE99
:10474C0007F1100300211846FFF714FF07F11003BF
:10475C0001211846FFF734FF07F10C0207F1100393
:10476C0011461846FFF7A9FE3B7B43F020033B7331
:10477C0007F10C0207F1100311461846FFF733FE40
:10478C0007F1100306211846FFF7F6FC3A1D07F156
:10479C00100311461846FFF75AFD7B7903F01003FE
:1047AC00DBB2002B05D00F48FFF746FC0E48FFF795
:1047BC0043FC7B7903F00803DBB2002BE6D00B48FB
:1047CC00FFF73AFC0848FFF737FCDFE7FD47000826
:1047DC0037480008714800087C0000207001002058
:1047EC007101002048490008584900085C4900083C
:1047FC0080B588B004AFF8607A601A460B46FB723D
:10480C0013463B81FB7A9AB24FF47A7302933B893D
:10481C0001937B68009301233121F868FEF782F93C
:10482C00002318461037BD4680BD80B588B004AF54
:10483C00F8607A601A460B46FB7213463B81FB7A92
:10484C009AB24FF47A7302933B8901937B6800937D
:10485C0001233121F868FEF75FFA00231846103760
:10486C00BD4680BD80B582B000AF0346FB80FB889F
:10487C001846FCF7A3FD00BF0837BD4680BD0000FD
:10488C00FDF79BFC0B480C490C4A002302E0D45862
:10489C00C4500433C4188C42F9D3094A094C002380
:1048AC0001E013600432A242FBD300F017F8FCF7CE
:1048BC003DF87047000000200C000020AC490008B7
:1048CC000C00002074010020FEE7034602449342D2
:1048DC0000D1704703F8011BF9E7000070B5002602
:1048EC000C4D0D4C641BA410A64209D100F01AF813
:1048FC0000260A4D0A4C641BA410A64205D170BDBB
:10490C0055F8043B98470136EEE755F8043B9847B9
:10491C000136F2E7A4490008A4490008A44900089C
:10492C00A8490008F8B500BFF8BC08BC9E46704703
:0C493C00F8B500BFF8BC08BC9E467047F0
:104948004E6F206D6F76656D656E743A20000000BD
:104958000D0A00004D6F76656D656E742064657490
:1049680065637465643A20000203040506070809B4
:104978000A0B0C0D0E0F10100102000000000000C1
:1049880000000000010203040607080900000000F7
:044998000102030411
:08499C00B0B7FF7F010000002D
:0449A40031010008D5
:0449A8000D010008F5
:0C49AC00100000000100000000127A0062
:040000050800488D1A
:00000001FF
