:020000040800F2
:1000000000500020D12A0008390C00083B0C0008E1
:100010003D0C00083F0C0008410C000800000000E7
:10002000000000000000000000000000430C000879
:10003000450C000800000000470C0008490C0008AF
:10004000192B0008192B0008192B0008192B000880
:10005000192B0008192B0008192B0008192B000870
:10006000192B0008510C0008192B0008192B000847
:10007000192B0008192B0008192B0008192B000850
:10008000192B0008192B0008192B0008192B000840
:10009000192B0008192B0008192B0008192B000830
:1000A000192B0008192B0008192B0008192B000820
:1000B000192B0008192B0008192B0008192B000810
:1000C000192B0008192B0008192B0008192B000800
:1000D000192B0008192B0008192B0008192B0008F0
:1000E0006D0C0008192B0008192B000800000000F7
:1000F0000000000000000000000000000000000000
:0C01000000000000000000005FF808F1A3
:1001100010B5054C237833B9044B13B10448AFF341
:1001200000800123237010BD680000200000000043
:10013000883A000808B5034B1BB103490348AFF3E5
:10014000008008BD000000006C000020883A000814
:1001500081F0004102E000BF83F0004330B54FEA78
:1001600041044FEA430594EA050F08BF90EA020FE5
:100170001FBF54EA000C55EA020C7FEA645C7FEA78
:10018000655C00F0E2804FEA5454D4EB5555B8BF9B
:100190006D420CDD2C4480EA020281EA030382EA0C
:1001A000000083EA010180EA020281EA0303362D9E
:1001B00088BF30BD11F0004F4FEA01314FF4801C71
:1001C0004CEA113102D0404261EB410113F0004F83
:1001D0004FEA03334CEA133302D0524263EB43033A
:1001E00094EA050F00F0A780A4F10104D5F1200ED8
:1001F0000DDB02FA0EFC22FA05F2801841F1000133
:1002000003FA0EF2801843FA05F359410EE0A5F106
:1002100020050EF1200E012A03FA0EFC28BF4CF037
:10022000020C43FA05F3C01851EBE37101F00045ED
:1002300007D54FF0000EDCF1000C7EEB00006EEBFA
:100240000101B1F5801F1BD3B1F5001F0CD3490884
:100250005FEA30004FEA3C0C04F101044FEA4452DB
:1002600012F5800F80F09A80BCF1004F08BF5FEA62
:10027000500C50F1000041EB045141EA050130BD42
:100280005FEA4C0C404141EB0101013C28BFB1F554
:10029000801FE9D291F0000F04BF01460020B1FA9F
:1002A00081F308BF2033A3F10B03B3F120020CDA72
:1002B0000C3208DD02F1140CC2F10C0201FA0CF050
:1002C00021FA02F10CE002F11402D8BFC2F1200CB5
:1002D00001FA02F120FA0CFCDCBF41EA0C0190406B
:1002E000E41AA2BF01EB0451294330BD6FEA0404B4
:1002F0001F3C1CDA0C340EDC04F11404C4F120029F
:1003000020FA04F001FA02F340EA030021FA04F3B0
:1003100045EA030130BDC4F10C04C4F1200220FA07
:1003200002F001FA04F340EA0300294630BD21FA45
:1003300004F0294630BD94F0000F83F4801306BF0B
:1003400081F480110134013D4EE77FEA645C18BFFF
:100350007FEA655C29D094EA050F08BF90EA020F96
:1003600005D054EA000C04BF1946104630BD91EA8E
:10037000030F1EBF0021002030BD5FEA545C05D191
:100380004000494128BF41F0004130BD14F58004D0
:100390003CBF01F5801130BD01F0004545F0FE4144
:1003A00041F470014FF0000030BD7FEA645C1ABF79
:1003B000194610467FEA655C1CBF0B46024650EAB0
:1003C000013406BF52EA033591EA030F41F40021DC
:1003D00030BD00BF90F0000F04BF0021704730B562
:1003E0004FF4806404F132044FF000054FF0000137
:1003F00050E700BF90F0000F04BF0021704730B5F8
:100400004FF4806404F1320410F0004548BF4042CC
:100410004FF000013EE700BF42004FEAE2014FEA21
:1004200031014FEA02701FBF12F07F4393F07F4FFC
:1004300081F06051704732F07F4208BF704793F0FF
:100440007F4F04BF41F40021704730B54FF4607412
:1004500001F0004521F000411CE700BF50EA010215
:1004600008BF704730B54FF000050AE050EA0102BE
:1004700008BF704730B511F0004502D5404261EB2E
:1004800041014FF4806404F132045FEA915C3FF46F
:10049000D8AE4FF003025FEADC0C18BF03325FEA0C
:1004A000DC0C18BF033202EBDC02C2F1200300FABD
:1004B00003FC20FA02F001FA03FE40EA0E0021FAE2
:1004C00002F11444BDE600BF70B54FF0FF0C4CF4D0
:1004D000E06C1CEA11541DBF1CEA135594EA0C0F82
:1004E00095EA0C0F00F0DEF82C4481EA030621EABD
:1004F0004C5123EA4C5350EA013518BF52EA0335F8
:1005000041F4801143F4801338D0A0FB02CE4FF0A9
:100510000005E1FB02E506F00042E0FB03E54FF0D9
:100520000006E1FB03569CF0000F18BF4EF0010ED1
:10053000A4F1FF04B6F5007F64F5407404D25FEACD
:100540004E0E6D4146EB060642EAC62141EA555180
:100550004FEAC52040EA5E504FEACE2EB4F1FD0CC2
:1005600088BFBCF5E06F1ED8BEF1004F08BF5FEA40
:10057000500E50F1000041EB045170BD06F00046F2
:1005800046EA010140EA020081EA0301B4EB5C049F
:10059000C2BFD4EB0C0541EA045170BD41F4801197
:1005A0004FF0000E013C00F3AB8014F1360FDEBFBC
:1005B000002001F0004170BDC4F10004203C35DA98
:1005C0000C341BDC04F11404C4F1200500FA05F31B
:1005D00020FA04F001FA05F240EA020001F00042BC
:1005E00021F0004110EBD37021FA04F642EB060132
:1005F0005EEA430E08BF20EAD37070BDC4F10C045C
:10060000C4F1200500FA04F320FA05F001FA04F21F
:1006100040EA020001F0004110EBD37041F100010B
:100620005EEA430E08BF20EAD37070BDC4F1200516
:1006300000FA05F24EEA020E20FA04F301FA05F27E
:1006400043EA020321FA04F001F0004121FA04F226
:1006500020EA020000EBD3705EEA430E08BF20EAF6
:10066000D37070BD94F0000F0FD101F00046400030
:1006700041EB010111F4801F08BF013CF7D041EAB2
:10068000060195F0000F18BF704703F000465200B6
:1006900043EB030313F4801F08BF013DF7D043EA87
:1006A0000603704794EA0C0F0CEA135518BF95EA3D
:1006B0000C0F0CD050EA410618BF52EA4306D1D1C4
:1006C00081EA030101F000414FF0000070BD50EAE3
:1006D000410606BF1046194652EA430619D094EA6D
:1006E0000C0F02D150EA013613D195EA0C0F05D157
:1006F00052EA03361CBF104619460AD181EA0301AB
:1007000001F0004141F0FE4141F470014FF0000062
:1007100070BD41F0FE4141F4780170BD70B54FF0FD
:10072000FF0C4CF4E06C1CEA11541DBF1CEA13557D
:1007300094EA0C0F95EA0C0F00F0A7F8A4EB05045F
:1007400081EA030E52EA03354FEA013100F0888056
:100750004FEA03334FF0805545EA131343EA12631F
:100760004FEA022245EA111545EA10654FEA0026D4
:100770000EF000419D4208BF964244F1FD0404F58D
:10078000407402D25B084FEA3202B61A65EB0305E9
:100790005B084FEA32024FF480104FF4002CB6EBA6
:1007A000020E75EB030E22BFB61A754640EA0C0026
:1007B0005B084FEA3202B6EB020E75EB030E22BF66
:1007C000B61A754640EA5C005B084FEA3202B6EBA7
:1007D000020E75EB030E22BFB61A754640EA9C0066
:1007E0005B084FEA3202B6EB020E75EB030E22BF36
:1007F000B61A754640EADC0055EA060E18D04FEAF4
:10080000051545EA16754FEA06164FEAC30343EA93
:1008100052734FEAC2025FEA1C1CC0D111F4801F60
:100820000BD141EA00014FF000004FF0004CB6E759
:1008300011F4801F04BF01430020B4F1FD0C88BFF8
:10084000BCF5E06F3FF6AFAEB5EB030C04BFB6EB03
:10085000020C5FEA500C50F1000041EB045170BDF6
:100860000EF0004E4EEA113114EB5C04C2BFD4EB23
:100870000C0541EA045170BD41F480114FF0000EA7
:10088000013C90E645EA060E8DE60CEA135594EA23
:100890000C0F08BF95EA0C0F3FF43BAF94EA0C0F26
:1008A0000AD150EA01347FF434AF95EA0C0F7FF49B
:1008B00025AF104619462CE795EA0C0F06D152EAEF
:1008C00003353FF4FDAE1046194622E750EA4106D3
:1008D00018BF52EA43067FF4C5AE50EA41047FF4E4
:1008E0000DAF52EA43057FF4EBAE12E74A0011D296
:1008F00012F5001211D20DD56FF47873B3EB62527A
:100900000ED44FEAC12343F0004343EA505323FA85
:1009100002F070474FF00000704750EA013002D1FA
:100920004FF0FF3070474FF000007047F0B589B0CE
:10093000002404940594069407942E4B9A6942F07F
:1009400010029A619A6902F010020092009A9A6964
:1009500042F020029A619A6902F020020192019A03
:100960009A6942F004029A619A6902F004020292C2
:10097000029A9A6942F008029A619B6903F008039F
:100980000393039B1C4D22462021284601F00AF8C0
:100990004FF400530493194B05930694184F04A980
:1009A000384600F0F1FE08230493164B0593012608
:1009B000069604A9384600F0E7FE20230493059626
:1009C00006940223079304A9284600F0DDFE224680
:1009D0002146092001F04AF8092001F057F8224683
:1009E0002146282001F042F8282001F04FF809B0F4
:1009F000F0BD00BF001002400008014000001110CF
:100A0000001001400000211010B582B004468DF89E
:100A100007004FF0FF3301220DF10701024800F0FB
:100A2000CAFA204602B010BDD401002038B50446F1
:100A30000D460146064802F0F1F92946054802F044
:100A4000EDF92A462146044802F0E8F938BD00BF16
:100A5000A03A0008A83A0008B03A000872B6FEE7CB
:100A600008B50A480A4B03604FF4E13343600023A2
:100A70008360C36003610C2242618361C36100F043
:100A80006AFA00B908BDFFF7E9FF00BF8C0100203A
:100A90000044004008B50A480A4B03600A4B436013
:100AA00000238360C3604FF480420261436183612D
:100AB000C361036201F0BAFA00B908BDFFF7CEFFC7
:100AC0001C02002000540040801A060008B50A48A5
:100AD0000A4B03604FF4E133436000238360C3603B
:100AE00003610C2242618361C36100F034FA00B9F2
:100AF00008BDFFF7B3FF00BFD4010020003801405C
:100B000000B591B02822002106A802F0CFFA0023F8
:100B10000193029303930493059302230693012206
:100B20000A9210220B920D934FF460130F9306A8B4
:100B300000F01CFB80B90F230193022102910023D6
:100B400003934FF480620492059301A800F040FDE6
:100B500020B911B05DF804FBFFF780FFFFF77EFFBF
:100B600000B583B000F0B4FA2E4802F0BFF9FFF7E9
:100B7000C7FFFFF7DBFEFFF773FFFFF78BFFFFF702
:100B8000A5FF294C2949204601F096FD204601F099
:100B9000E5FD204601F0DEFE072301220321204669
:100BA00001F0BAFE0121204601F048FE0021204656
:100BB00001F05EFE0421204601F025FE1C4D294671
:100BC000204601F071FE2946204601F089FE0321EE
:100BD000204601F0DBFE0121204601F0CDFD012180
:100BE000204601F0F9FD0121204601F0E5FD00213C
:100BF000ADF80410012301AA204601F095FD0AE09A
:100C0000094801F040FF20210A4800F0D1FE4FF4CE
:100C10007A7000F081FA044801F0F2FD0028EFD16B
:100C2000F1E700BFBC3A0008840000201C0200204D
:100C30006666C64000080140FEE7FEE7FEE7FEE705
:100C4000FEE770477047704708B500F053FA08BDDB
:100C500008B5054801F0D0FD082000F0B3FE0820DB
:100C600000F0B0FE08BD00BF8400002008B54FF4BE
:100C7000005000F0A7FE08BD82B00E4B9A6942F00A
:100C800001029A619A6902F001020092009ADA69FF
:100C900042F08052DA61DB6903F080530193019BDB
:100CA000054A536823F0E06343F00073536002B0D9
:100CB000704700BF001002400000014010B586B030
:100CC000002302930393049305930268114B9A4205
:100CD00001D006B010BD104CA36943F00803A36116
:100CE000A36903F008030093009BC023029312231F
:100CF00003930323059302A9084800F045FDE36927
:100D000043F40013E361E36903F400130193019BCF
:100D1000DFE700BF0054004000100240000C01401B
:100D200010B588B0002304930593069307930368D6
:100D3000274A934204D0274A93422BD008B010BDD3
:100D4000254B9A6942F480429A619A6902F4804282
:100D50000092009A9A6942F004029A619B6903F03A
:100D600004030193019B4FF4007304930223059342
:100D700003230793194C04A9204600F005FD4FF406
:100D80008063049300230593069304A9204600F092
:100D9000FBFCD3E7104BDA6942F40032DA61DA691E
:100DA00002F400320292029A9A6942F004029A61B5
:100DB0009B6903F004030393039B0C230493022316
:100DC0000593079304A9054800F0DEFCB6E700BFD1
:100DD000003801400044004000100240000801407B
:100DE000026802F10C0353E8003F23F490730C32C5
:100DF00042E800310029F3D1026802F1140353E8FC
:100E0000003F23F00103143242E800310029F3D1FE
:100E1000036B012B05D0202380F8423000230363AD
:100E20007047026802F10C0353E8003F23F01003FF
:100E30000C3242E800310029F3D1ECE710B504464A
:100E40000268136923F44053C1680B43136183683C
:100E50000269134342691A430168CB6823F4B05313
:100E600023F00C031343CB600268536923F44073EF
:100E700081690B4353610268134B9A4220D000F002
:100E800063FC024602EB820202EB820263689B0073
:100E9000B2FBF3F20D48A0FB02314909642303FBC6
:100EA00011231B013233A0FB03035B0903F0F002A3
:100EB00002EB011203F00F03216813448B6010BD95
:100EC00000F052FC0246DDE7003801401F85EB517F
:100ED0002DE9F04383B005460E4617469946DDF8E6
:100EE00028802B681C6836EA04040CBF0124002407
:100EF000BC4228D1B8F1FF3FF3D000F007F9A0EBD6
:100F00000900404523D8B8F1000F22D02B68DA68D9
:100F100012F0040FE5D0802EE3D0402EE1D01A6805
:100F200012F0080FDDD0002401941A6801925B686A
:100F30000193019B2846FFF753FF08236B6485F854
:100F40004040012000E0002003B0BDE8F083032012
:100F5000FAE70320F8E760B310B5044690F8413093
:100F600013B3242384F841302268D36823F4005358
:100F7000D3602046FFF762FF2268136923F4904391
:100F800013612268536923F02A0353612268D368EE
:100F900043F40053D36000206064202384F8413080
:100FA00084F84230606310BD80F84030FFF7B8FE2F
:100FB000D7E7012070472DE9F04182B01E4690F836
:100FC0004130DBB2202B56D104460D469046002915
:100FD00055D00AB901204FE000234364212380F853
:100FE000413000F093F80746A4F82480A4F8268046
:100FF000A368B3F5805F02D04FF0000814E02369C6
:101000002BB34FF000080FE0202384F84130032079
:1010100032E038F8023B2268C3F308035360E28CE5
:1010200092B2013A92B2E284E38C9BB293B1009601
:101030003B46002280212046FFF74AFF0028E3D1EB
:10104000002DE6D015F8012B23685A60E7E7A84683
:101050000025E9E700963B46002240212046FFF7A5
:1010600037FF18B9202384F8413005E0202384F8A5
:101070004130032000E0022002B0BDE8F0810120F1
:10108000FAE7000010B504460E4B1A784FF47A7355
:10109000B3FBF2F30C4A1068B0FBF3F000F004FD70
:1010A00068B90F2C01D901200AE0002221464FF037
:1010B000FF3000F0DBFC054B1C60002000E001204D
:1010C00010BD00BF00000020080000200400002028
:1010D00008B5074A136843F010031360032000F0BB
:1010E000B3FC0020FFF7CEFFFFF7C6FD002008BDD0
:1010F00000200240034A1168034B1B780B44136025
:10110000704700BF7002002000000020014B1868EB
:10111000704700BF7002002038B50446FFF7F6FFA5
:101120000546B4F1FF3F02D0044B1B781C44FFF787
:10113000EDFF401BA042FAD338BD00BF00000020E5
:1011400082B0084B1B68084AA2FB03235B0A00FB22
:1011500003F3019300BF019B5A1E0192002BF9D1AA
:1011600002B0704708000020D34D6210002800F044
:10117000F18170B582B00446036813F0010F2CD0E2
:10118000994B5B6803F00C03042B1DD0964B5B68F6
:1011900003F00C03082B12D06368B3F5803F41D0F5
:1011A000002B55D103F1804303F504331A6822F470
:1011B00080321A601A6822F480221A6037E08A4B63
:1011C0005B6813F4803FE7D0874B1B6813F4003F44
:1011D00003D06368002B00F0BF81236813F0020F77
:1011E00075D0814B5B6813F00C0F5FD07E4B5B6852
:1011F00003F00C03082B54D02369002B00F08A80E5
:101200007A4B01221A60FFF781FF0546764B1B6877
:1012100013F0020F75D1FFF779FF401B0228F5D9B3
:1012200003209EE1704A136843F4803313606368BF
:1012300043B3FFF76BFF05466B4B1B6813F4003F8E
:10124000CBD1FFF763FF401B6428F5D9032088E169
:10125000B3F5A02F09D0644B1A6822F480321A60CB
:101260001A6822F480221A60E1E703F18043A3F5B3
:101270003C331A6842F480221A601A6842F48032C1
:101280001A60D4E7FFF742FF0546574B1B6813F47B
:10129000003FA2D0FFF73AFF401B6428F5D9032096
:1012A0005FE1514B5B6813F4803FA5D14E4B1B6847
:1012B00013F0020F03D02369012B40F04F814A4AFB
:1012C000136823F0F803616943EAC10313602368DC
:1012D00013F0080F33D0A369002B5CD0434B0122DD
:1012E000C3F88024FFF712FF05463F4B5B6A13F0FB
:1012F000020F21D1FFF70AFF401B0228F5D9032076
:101300002FE1394A136823F0F803616943EAC10306
:101310001360DCE7354B00221A60FFF7F7FE054645
:10132000314B1B6813F0020FD1D0FFF7EFFE401BCB
:101330000228F5D9032014E10120FFF701FF2368FB
:1013400013F0040F00F09680274BDB6913F0805FE9
:1013500034D1254BDA6942F08052DA61DB6903F05F
:1013600080530193019B0125214B1B6813F4807F5F
:1013700026D0E368012B3DD0002B53D103F18043ED
:1013800003F504331A6A22F001021A621A6A22F083
:1013900004021A6233E0154B0022C3F88024FFF7E1
:1013A000B5FE0546104B5B6A13F0020FC7D0FFF77E
:1013B000ADFE401B0228F5D90320D2E00025D3E77B
:1013C0000B4A136843F480731360FFF79FFE0646D1
:1013D000074B1B6813F4807FCBD1FFF797FE801B70
:1013E0006428F5D90320BCE000100240000042420E
:1013F000007000405F4A136A43F001031362E36820
:1014000033B3FFF783FE06465A4B1B6A13F0020FF5
:101410002FD1FFF77BFE801B41F288339842F3D92E
:1014200003209EE0052B09D0524B1A6A22F00102DC
:101430001A621A6A22F004021A62E0E74D4B1A6A35
:1014400042F004021A621A6A42F001021A62D6E7F6
:10145000FFF75CFE0646474B1B6A13F0020F08D0ED
:10146000FFF754FE801B41F288339842F3D90320E2
:1014700077E0E5B9E369002B72D03E4A526802F08A
:101480000C02082A56D0022B17D03B4B00221A66BA
:10149000FFF73CFE0446374B1B6813F0007F47D034
:1014A000FFF734FE001B0228F5D9032059E0314A2A
:1014B000D36923F08053D361DCE72F4B00221A66F7
:1014C000FFF724FE05462B4B1B6813F0007F06D068
:1014D000FFF71CFE401B0228F5D9032041E0236AD8
:1014E000B3F5803F1AD023494B6823F47413226A62
:1014F000606A024313434B601F4B01221A66FFF7D9
:1015000005FE04461B4B1B6813F0007F0ED1FFF74E
:10151000FDFD001B0228F5D9032022E0154A53687F
:1015200023F40033A1680B435360DCE7002018E08C
:10153000002016E0012B16D00E4B5B6803F48031BF
:10154000226A914211D103F47013626A93420ED160
:10155000002006E001207047012002E0012000E0A9
:10156000002002B070BD0120FBE70120F9E7012057
:10157000F7E700BF00100240000042420F4B5B68DB
:1015800003F00C02082A01D00D487047C3F38342D0
:101590000C49885C13F4803F0BD0084B5B68C3F3A5
:1015A0004043094AD35C064A02FB00F0B0FBF3F06B
:1015B0007047064B03FB00F0704700BF001002406D
:1015C00000127A00CC3A0008C83A000800093D0031
:1015D000002800F0A08070B50D460446524B1B68F1
:1015E00003F007038B420BD24F4A136823F0070323
:1015F0000B431360136803F007038B4240F08D80A8
:10160000236813F0020F17D013F0040F04D0474AD9
:10161000536843F4E0635360236813F0080F04D069
:10162000424A536843F460535360404A536823F07E
:10163000F003A1680B435360236813F0010F31D00E
:101640006368012B20D0022B25D0384A126812F093
:10165000020F64D035494A6822F0030213434B60FD
:10166000FFF754FD0646314B5B6803F00C036268DC
:10167000B3EB820F16D0FFF749FD801B41F2883390
:101680009842F0D9032045E0284A126812F4003F3E
:10169000E0D101203EE0254A126812F0007FD9D146
:1016A000012037E0204B1B6803F00703AB420AD947
:1016B0001D4A136823F007032B431360136803F0DC
:1016C0000703AB422DD1236813F0040F06D0174A4D
:1016D000536823F4E063E1680B435360236813F01D
:1016E000080F07D0114A536823F46053216943EA75
:1016F000C1035360FFF742FF0C4B5B68C3F3031356
:101700000B4AD35CD8400B4B18600B4B1868FFF7A3
:10171000B9FC002070BD012070470120FAE70120CC
:10172000F8E70120F6E700BF002002400010024069
:10173000E43A00080800002004000020014B18686B
:10174000704700BF0800002008B5FFF7F7FF044B03
:101750005B68C3F30223034AD35CD84008BD00BFD3
:1017600000100240DC3A000808B5FFF7E7FF044B21
:101770005B68C3F3C223034AD35CD84008BD00BFF3
:1017800000100240DC3A000870B582B00024A44684
:10179000A2E07E4DAB4210D007D97D4DAB420CD0BC
:1017A00005F58035AB4208D013E0A5F58015AB42B6
:1017B00003D005F57025AB4207D18B68002B55D0BF
:1017C000012B4ED04261082403E0A5F58015AB4201
:1017D000F3D0BEF1FF0F4BD806464FEA8C023368B8
:1017E0000F25954023EA050304FA02F21343336000
:1017F0004B6813F0805F6DD0664B9A6942F001022E
:101800009A619B6903F001030193019B4FEA9C02DB
:10181000951C614B53F825600CF00305AD000F23B8
:10182000AB4026EA03065D4B984228D003F580635F
:10183000984200F08D8003F58063984200F08A8022
:1018400003F58063984218D0042319E0CC68C0E700
:10185000CC680434BDE7CC680834BAE7CC680C34F3
:10186000B7E702610824B4E70024B2E70424B0E734
:10187000061DACF108029200B1E7032300E000234B
:10188000AB4033430232444D45F822304B6813F4E9
:10189000801F61D0424A936843EA0E0393604B680D
:1018A00013F4001F5ED03E4AD36843EA0E03D360B0
:1018B0004B6813F4003F5BD0394A536843EA0E0388
:1018C00053604B6813F4803F58D0354A136843EA9D
:1018D0000E0313600CF1010C0B6833FA0CF253D0B9
:1018E000012202FA0CF203EA020E32EA0303F1D1FA
:1018F0004B68122B3FF64DAF122B3FF66AAF01A596
:1019000055F823F0BB1700084D18000857180008B9
:1019100069180008D3170008D3170008D317000868
:10192000D3170008D3170008D3170008D3170008EF
:10193000D3170008D3170008D3170008D3170008DF
:10194000D3170008D3170008511800085D180008C5
:10195000012395E7022393E7114A936823EA0E03D4
:1019600093609CE70E4AD36823EA0E03D3609FE797
:101970000B4A536823EA0E035360A2E7084A136830
:1019800023EA0E031360A5E702B070BD0000221029
:10199000000031100010024000000140000801402A
:1019A000000401400AB101617047090401617047F8
:1019B000C36801EA030221EA030141EA024101612D
:1019C0007047704708B5054B5B69034200D108BDFD
:1019D000024B5861FFF7F5FFF9E700BF0004014033
:1019E000002808DB0901C9B200F1604000F5614040
:1019F00080F80013704700F00F000901C9B2014BD5
:101A00001954704714ED00E000B500F00700C0F174
:101A1000070CBCF1040F28BF4FF0040C031D062B6C
:101A20000FD9C31E4FF0FF3E0EFA0CF021EA000161
:101A300099400EFA03FE22EA0E0241EA02005DF826
:101A400004FB0023EEE70000074AD36823F4E063B9
:101A50001B041B0C000200F4E060034343F0BF636F
:101A600043F40033D360704700ED00E010B5044646
:101A7000054BD868C0F30220FFF7C6FF0146204699
:101A8000FFF7AEFF10BD00BF00ED00E0002807DB50
:101A900000F01F02400901239340024A42F820301F
:101AA000704700BF00E100E00138B0F1807F0BD249
:101AB0004FF0E0235861054AF02182F823100020FE
:101AC000986107221A6170470120704700ED00E01D
:101AD0007047000010B503460C4A0D490D480068D8
:101AE00040B10C4800680344521A934206D8094A90
:101AF000136010BD0748084C0460F2E701F034FBA6
:101B00000C2303604FF0FF30F3E700BF00500020CC
:101B10000004000074020020C803002070B50C46C9
:101B20001646002506E0AFF30080214601F8010BC0
:101B300001350C46B542F6DB304670BD70B50C463B
:101B40001646002504E014F8010BFEF75DFF013591
:101B5000B542F8DB304670BD4FF0FF3070474FF4B0
:101B600000534B60002070470120704700207047F1
:101B700003685A6912F4806F01D1002070476FF436
:101B800080625A6100230363202280F83D2080F8A0
:101B90003E30026C42F00402026480F83C300120C6
:101BA00070472DE9F04106460C46174698463BE043
:101BB000FFF7ACFA069BC01A404502D8B8F1000FF7
:101BC00032D1012D18D033689B6924EA03039BB2FC
:101BD000B3FA83F35B099F4226D1002333632022AB
:101BE00086F83D2086F83E30326C42F020023264A6
:101BF00086F83C30012027E033685B6924EA030360
:101C00009BB2B3FA83F35B09E5E733685B6924EAC7
:101C1000030C1FFA8CFCBCFA8CFC4FEA5C1C674579
:101C200011D1B8F1FF3FC3D1C4F30745012DECD06A
:101C300033689B6924EA030C1FFA8CFCBCFA8CFC09
:101C40004FEA5C1CEBE70020BDE8F0812DE9F8438A
:101C500005460E469046994653E01A6842F40072D3
:101C60001A602B686FF480625A6100232B63202274
:101C700085F83D2085F83E302A6C42F004022A6443
:101C800085F83C3001204AE0FFF740FAA0EB09005C
:101C9000404502D8B8F1000F33D1012F17D02B687F
:101CA0009B6926EA03039BB2003B18BF012343B3A1
:101CB00000232B63202285F83D2085F83E302A6CD6
:101CC00042F020022A6485F83C30012027E02B688E
:101CD0005B6926EA03039BB2003B18BF0123E6E7DA
:101CE0002B689C6926EA0404A4B2003C18BF0124B6
:101CF000A4B12B685A6912F4806FAED1B8F1FF3FDE
:101D0000C2D1C6F30747012FEAD12B685C6926EAE6
:101D10000404A4B2003C18BF0124E9E70020BDE898
:101D2000F8830000F0B583B004460D4616461F4602
:101D3000C36A082B0DD0012B0BD013F5803F08D0C0
:101D4000036B122B0AD10268136843F4807313608B
:101D500004E02268136843F48073136000973346ED
:101D600000224FF001112046FFF71BFF80B92369C5
:101D7000B3F5804F16D1236805F0FE051D613B4683
:101D8000324613492046FFF761FFF8B903B0F0BDB2
:101D900023681B6813F4807F02D04FF40073236420
:101DA0000320F3E7EB11226803F0060343F0F0038E
:101DB00013613B46324607492046FFF747FF18B9F3
:101DC0002368EDB21D61DAE70120DFE70120DDE7DE
:101DD00002000100080001002DE9F04184B0044632
:101DE0000D4616461F46C26A01680B6843F48063BD
:101DF0000B60082A0DD0012A0BD012F5803F08D0C5
:101E0000036B112B0AD10268136843F480731360CB
:101E100004E02268136843F480731360009733462C
:101E200000224FF001112046FFF7BBFE98B923694D
:101E3000B3F5804F19D1236845F00105EDB21D615E
:101E40003B4632462A492046FFF700FF00284CD186
:101E500004B0BDE8F08123681B6813F4807F02D0D2
:101E60004FF4007323640320F2E74FEAE51808F00B
:101E70000608236848F0F0021A613B4632461D49C5
:101E80002046FFF7E3FE08B10120E1E72368EDB249
:101E90001D613B46324616492046FFF7D7FE08B182
:101EA0000120D5E7002203922368596903919969BB
:101EB00003910399196841F48071196000973346C2
:101EC0004FF001112046FFF76CFE20B9226848F060
:101ED000F1031361B4E723681B6813F4807F02D019
:101EE0004FF4007323640320B2E70120B0E700BF82
:101EF000020001000800010070B504460D461646B8
:101F000023685B6913F0800F21D12046FFF730FE74
:101F1000F8B9B5F1FF3FF3D0FFF7F8F8801BA842FE
:101F200001D8002DECD123685B6913F0800FE7D155
:101F300000232363202284F83D2084F83E30226C65
:101F400042F02002226484F83C30012000E00020AE
:101F500070BD0120FCE770B504460D4616462368A7
:101F60005B6913F0040F21D12046FFF701FEF8B999
:101F7000B5F1FF3FF3D0FFF7C9F8801BA84201D8A5
:101F8000002DECD123685B6913F0040FE7D1002327
:101F90002363202284F83D2084F83E30226C42F0F6
:101FA0002002226484F83C30012000E0002070BD53
:101FB0000120FCE770B504460D46164614E06FF0AC
:101FC00010025A6100232363202284F83D2084F804
:101FD0003E30226C226484F83C30012025E02368E6
:101FE0005B6913F0400F10D02368586910F0400F60
:101FF0001AD1586910F0100FE1D1FFF787F8801B54
:10200000A842ECD8002DEFD1E9E70023236320227A
:1020100084F83D2084F83E30226C42F02002226495
:1020200084F83C30012000E0002070BD002800F062
:10203000CC8070B5044690F83D30002B77D0242337
:1020400084F83D302268136823F00103136022688E
:10205000136843F4004313602268136823F40043B9
:102060001360FFF771FB62685A4B9A4264D85A4B6F
:1020700098428CBF00230123002B40F0A8805749D1
:10208000A1FB00318B0C25686A6822F03F0242EA0E
:1020900091426A6021680A6A22F03F0266684D4DEB
:1020A000AE424FD8013313430B622168CA6922F450
:1020B0004F4222F0FF026568464B9D424CD8431EBA
:1020C0006D00B3FBF5F3013340F6FC70034278D0AA
:1020D000C3F30B031A43CA6121680B6823F0C003E2
:1020E000E269206A024313430B6021688B6823F482
:1020F000034323F0FF032269E068024313438B602C
:102100002168CB6823F0FF036269A069024313438F
:10211000CB602268136843F0010313600020206441
:10212000202384F83D30206384F83E0070BD80F8A1
:102130003C30FEF7C3FD82E7294B98428CBF002359
:10214000012399E74FF4967505FB03F3254DA5FB95
:1021500003539B090133A6E7A668BEB9431E05EBEE
:10216000450CB3FBFCF30133C3F30B03B3FA83F366
:102170005B0943BBC6B9431E05EB4505B3FBF5F34D
:102180000133C3F30B0343F40043A3E7431E05EB02
:10219000850C0CEB8C0CB3FBFCF30133C3F30B038A
:1021A000B3FA83F35B09E4E7431E05EB850505EB12
:1021B0008505B3FBF5F30133C3F30B0343F440434D
:1021C00088E7042386E7012384E701207047012084
:1021D000ACE700BFA08601007F841E0083DE1B43A6
:1021E000FF083D00D34D62102DE9F04385B0044651
:1021F0000F46914698460C9EFEF788FF054694F8D8
:102200003D00C0B2202804D00227384605B0BDE802
:10221000F0830095192301224F492046FFF7C1FCA6
:10222000002840F0928094F83C30012B00F08F8021
:10223000012384F83C3023681A6812F0010F03D19F
:102240001A6842F001021A602268136823F40063DE
:102250001360212384F83D30102384F83E3000239E
:102260002364C4F82490A4F82A80638D23853B4B13
:10227000E3622B46324639462046FFF753FD0746B8
:10228000002866D10023039323685A6903929B694F
:102290000393039B11E0236C042B01D00127B4E7C7
:1022A0002268136843F400731360F7E72A46314647
:1022B0002046FFF750FE00282ED1238D002B36D06C
:1022C0002A4631462046FFF717FE0028E3D1626A0E
:1022D000236812781A61606A431C6362618D89B257
:1022E000013989B26185238D013B9BB22385226828
:1022F000516911F0040FD9D0002BD7D04378136166
:10230000636A01336362638D9BB2013B9BB2638559
:10231000238D013B2385C9E7236C042B01D00127C2
:1023200073E72268136843F400731360F7E72268C9
:10233000136843F400731360202384F83D300023B6
:1023400084F83E3084F83C305FE702275DE70227DF
:102350005BE7012759E700BF020010000000FFFF04
:102360002DE9F04389B004460F4691469846109EE9
:1023700000230793FEF7CAFE054694F83D00C0B25D
:10238000202804D00227384609B0BDE8F083009524
:102390001923012280492046FFF703FC002840F062
:1023A0007A8194F83C30012B00F07781012384F886
:1023B0003C3023681A6812F0010F03D11A6842F00A
:1023C00001021A602268136823F400631360222359
:1023D00084F83D30102384F83E3000232364C4F891
:1023E0002490A4F82A80638D23856C4BE3622B46EE
:1023F000324639462046FFF7EFFC0746002840F0FA
:102400004E81238D5BB9039323685A6903929A69BD
:102410000392039A1A6842F400721A60F3E0012BE7
:102420000FD0022B21D02268136843F4806313601D
:102430000023069323685A6906929B690693069BBC
:10244000E1E02268136823F48063136072B600230E
:10245000049323685A6904929A690492049A1A6848
:1024600042F400721A6062B6CDE02268136843F449
:102470000063136072B60023059323685A690592BE
:102480009A690592059A1A6822F480621A6062B607
:10249000B9E02A4631462046FFF78CFD002840F07F
:1024A000008123681A69636A1A70636A0133636280
:1024B000238D013B2385638D9BB2013B9BB26385DA
:1024C000A1E000953346002235492046FFF769FB1D
:1024D000002840F0EA802268136823F480631360C8
:1024E00072B623681A69636A1A70636A0133636299
:1024F000238D013B2385638D9BB2013B9BB263859A
:10250000284B1B68DB08284AA2FB03231B0A03EBAA
:102510008303C3EBC3030793079901390791079915
:10252000002928D023685A6912F0040FF4D01A68E1
:1025300042F400721A6023681A69636A1A70636A47
:1025400001336362238D013B2385638D9BB2013B85
:102550009BB2638562B623681A69636A1A70636AFC
:1025600001336362238D013B2385638D9BB2013B65
:102570009BB2638547E000232363202284F83D203B
:1025800084F83E30226C42F02002226462B684F865
:102590003C300127F7E600BF020010000000FFFFFB
:1025A000040001000800002089B5F8142A463146CD
:1025B0002046FFF7FFFC002879D123681A69636A77
:1025C0001A70636A01336362228D013A92B22285E6
:1025D000638D9BB2013B9BB263852368596911F0FF
:1025E000040F10D0032A48D023681A69636A1A704E
:1025F000636A01336362238D013B2385638D9BB244
:10260000013B9BB26385218D00293BD00329CDD8A6
:1026100001293FF43EAF02297FF453AF00953346C2
:10262000002224492046FFF7BCFA00283BD172B6AD
:102630002268136843F40073136023681A69636A9D
:102640001A70636A01336362238D013B2385638DB6
:102650009BB2013B9BB2638562B623681A69636AC9
:102660001A70636A01336362238D013B2385638D96
:102670009BB2013B9BB26385C5E71A6822F4806276
:102680001A60B1E7202384F83D30002384F83E30FF
:1026900084F83C3077E6022775E6022773E60127C7
:1026A00071E601276FE601276DE601276BE601273A
:1026B00069E600BF0400010070B504460160002512
:1026C00080F80451802632462946043000F0EEFCA2
:1026D0003246294604F1840000F0E8FC70BD2DE983
:1026E000F04182B00746884616461C46581C00F04A
:1026F00015FA054680F8008006B17CB9631C4FF4DA
:102700007A7200929BB22A46AE213868FFF76CFDC0
:10271000284600F00BFA02B0BDE8F08122463146AF
:10272000013000F04EFDE9E7F0B585B004461546EE
:102730001E468DF80F104FF47A77009701230DF1A4
:102740000F02AE210068FFF74FFD009733462A467F
:10275000AE212068FFF704FE05B0F0BD00B583B0E0
:1027600040238DF8073001230DF107020921FFF7FF
:10277000B6FF03B05DF804FB30B583B004460D46E8
:1027800000238DF8073001230DF107020221FFF726
:10279000CBFF9DF8073003F07F038DF8073043EA45
:1027A000C5138DF8073001230DF1070202212046E1
:1027B000FFF795FF03B030BD00B583B0490001F0CD
:1027C00002018DF8071001230DF107020321FFF725
:1027D00086FF03B05DF804FB00B583B0490001F04B
:1027E00002018DF8071001230DF107022121FFF7E7
:1027F00076FF03B05DF804FB012380F804317047D5
:1028000090F80401704730B583B004460D460123AB
:102810000DF107020A21FFF787FF9DF8073003F04B
:10282000630343EA85018DF8071001230DF10702C8
:102830000A212046FFF753FF03B030BD30B583B007
:1028400005460C4601230DF107020A21FFF76CFF34
:102850009DF8073003F07C031C438DF807400123EB
:102860000DF107020A212846FFF739FF03B030BDFA
:1028700030B583B004460D4601230DF107020A214D
:10288000FFF752FF9DF8073003F01F0343EA45119D
:102890008DF8071001230DF107020A212046FFF7EA
:1028A0001EFF03B030BD000010B582B004460846DC
:1028B000FDF7B2FD08A3D3E90023FDF72FFFFEF7D4
:1028C00015F88DF8070001230DF107020C212046B1
:1028D000FFF705FF02B010BD9A9999999999C93FE0
:1028E00010B582B004460846FDF796FD08A3D3E96B
:1028F0000023FDF713FFFDF7F9FF8DF80700012313
:102900000DF107020D212046FFF7E9FE02B010BDD0
:102910009A9999999999C93F00B583B04FF0000CE5
:102920008DF807C04901C9B28DF80710120102F0F5
:10293000100211438DF8071003F00F0319438DF8AF
:10294000071001230DF107020821FFF7C8FE03B0AD
:102950005DF804FB10B582B0044600238DF8073003
:1029600003230DF107020421FFF7B9FE03230DF144
:10297000070206212046FFF7B2FE03230DF10702EE
:1029800005212046FFF7ABFE02B010BD30B583B085
:1029900005460C4601230DF107020921FFF7C4FE8D
:1029A0009DF8073023F007031C438DF807400123EF
:1029B0000DF1070209212846FFF791FE2846FFF78F
:1029C000C9FF03B030BD70B582B0054600238DF855
:1029D00007308DF8063001230DF107020421FFF7BF
:1029E000A3FE01230DF1060206212846FFF79CFEF7
:1029F0009DF807609DF80630F61AF3B276B2002E05
:102A000001DD00242CE020335EB2FAE706236A469B
:102A100007212846FFF788FE9DF800309DF8010049
:102A2000000240EA03409DF802301843C0F3110051
:102A30009DF803309DF80410090241EA03419DF816
:102A400005301943C1F3110105EB8403586004F10B
:102A5000200305EB83035960FDF7E8FF013464B2FE
:102A6000A642D3DC02B070BD38B50446154601233A
:102A70000A461F21FFF758FE01232A46202120463F
:102A8000FFF752FE38BD10B582B004460021ADF804
:102A90000410022301AAFFF747FE9DF80430DB096A
:102AA00009D19DF8053013F0020F08D1002384F8F6
:102AB000043102B010BD2046FFF785FFF1E70DF1AC
:102AC00003020DF102012046FFF7CEFFEEE7000002
:102AD000FEF7FEFF0B480C490C4A002302E0D458D5
:102AE000C4500433C4188C42F9D3094A094C00235A
:102AF00001E013600432A242FBD300F03BFBFEF77F
:102B00002FF870470000002068000020303B0008CC
:102B100068000020C4030020FEE70000024B0146CD
:102B2000186800F02DB800BF18000020024B0146C5
:102B3000186800F055BB00BF1800002070B50F4E9C
:102B40000C463168054611B900F0ECFA30602146B8
:102B5000284600F0E7FA431C03D14FF0FF3420462B
:102B600070BDC41C24F00304A042F8D0211A2846EA
:102B700000F0D8FA0130F2D1EFE700BF7802002070
:102B80002DE9F843CD1C25F0030508350C2D38BF81
:102B90000C25002D064601DBA94204D90C23336025
:102BA0000020BDE8F883DFF8D48000F069F8D8F899
:102BB00000301C4644BB29463046FFF7BFFF431C8C
:102BC000044658D1D8F800402746002F43D1002CA6
:102BD0004BD023683946304604EB030900F0A2FAD3
:102BE000814542D1216830466D1A2946FFF7A6FF7C
:102BF00001303AD023682B442360D8F800305A685B
:102C000062BBC8F800700FE02268521B20D40B2A68
:102C100017D96119A342256018BF5960636808BFBE
:102C2000C8F8001062514B60304600F02FF804F1F4
:102C30000B00231D20F00700C21A1CBF1B1AA35053
:102C4000AFE76268A3420CBFC8F800205A60EBE708
:102C500023466468AEE73C467F68B6E71A465B6881
:102C6000A342FBD100235360DEE70C2330463360E0
:102C700000F00CF894E70560D6E700BF7C02002066
:102C8000014800F09CBA00BFC0030020014800F0DA
:102C900097BA00BFC0030020002310B50446C0E966
:102CA0000033C0E90433836081814366C28183615C
:102CB000194608225C3000F0F9F90D4B246263627A
:102CC0000C4BA3620C4BE3620C4B23630C4B9C42FA
:102CD00006D003F16802944202D0D0339C4205D161
:102CE00004F15800BDE8104000F068BA10BD00BF04
:102CF000FD2E00081F2F0008572F00087B2F00080B
:102D000080020020024A0349034800F069B800BF6E
:102D10000C000020153900081C00002041680C4BF5
:102D200010B59942044601D000F0F4FDA168094BAA
:102D3000994202D0204600F0EDFDE168064B994231
:102D400004D02046BDE8104000F0E4BD10BD00BF37
:102D500080020020E80200205003002010B50B4B39
:102D60000B4C0C4A20461A6004210022FFF794FF06
:102D700004F1680001220921FFF78EFF04F1D00061
:102D80000222BDE810401221FFF786BFB8030020E1
:102D900080020020052D0008014800F010BA00BF95
:102DA000C1030020014800F00BBA00BFC10300209E
:102DB00010B50446FFF7F0FF236A1BB1BDE81040D1
:102DC000FFF7F0BF044B2362044B1B68002BF5D1C7
:102DD000FFF7C4FFF2E700BF1D2D0008B803002075
:102DE0002DE9F8430746884614460026D4E90195A4
:102DF000B9F1010905D52468002CF7D13046BDE8AA
:102E0000F883AB89012B07D9B5F90E30013303D014
:102E100029463846C04706436835E9E70FB407B589
:102E2000064904AB086853F8042B8168019300F04D
:102E300047FA03B05DF804EB04B0704718000020B7
:102E4000036A70B505460E4684680BB9FFF7B0FFFC
:102E5000636EDB0705D4A389980502D4A06D00F04A
:102E6000AEF9A389190702D52369002B35D1214674
:102E7000284600F0C5F880B34FF0FF35636EDA07DF
:102E800005D4A3899B0502D4A06D00F099F92846CA
:102E900070BD002B04DAA2699A4217DC0A2915D00A
:102EA00023685A1C22601970A36816F8011F013BA1
:102EB000A3600029EDD1002B11DA22460A21284611
:102EC00000F05FF80130D7D00A25D7E72246284620
:102ED00000F057F80130E7D1CEE7013EE4E7236880
:102EE0005A1C22600A221A70EEE70000024B0146CB
:102EF0001868FFF7A5BF00BF1800002010B50C46EA
:102F0000B1F90E1000F0FCF80028ABBF636DA38987
:102F10001B1823F48053ACBF6365A38110BD2DE95A
:102F2000F0411F468B890546DB050C46164605D544
:102F300002230022B1F90E1000F0D0F8A389324626
:102F400023F48053A38128463B46B4F90E10BDE814
:102F5000F04100F0F7B810B50C46B1F90E1000F0D2
:102F6000BDF8431CA38915BF606523F4805343F467
:102F70008053A38118BFA38110BDB1F90E1000F0DA
:102F80009DB8F8B50E461446054618B1036A0BB94C
:102F9000FFF70EFFA369A360A3891A0701D5236970
:102FA00043B92146284600F02BF818B14FF0FF37FF
:102FB0003846F8BD23682269F6B2981A6369374625
:102FC000834205DC2146284600F0A4FC0028EDD110
:102FD000A368013BA36023685A1C22601E706269CB
:102FE000431C9A4204D0A389DB07E1D50A2EDFD126
:102FF0002146284600F08EFC0028D9D0D6E70000F4
:1030000038B5294B054618680C4618B1036A0BB948
:10301000FFF7CEFEB4F90C30190722D4DA0607D434
:1030200009222A6043F040034FF0FF30A38133E0D0
:10303000580712D5616B41B104F14403994202D0A3
:10304000284600F0CDF800236363A38923F024030E
:10305000A3810023636023692360A38943F00803ED
:10306000A38123694BB9A38903F42073B3F5007FCF
:1030700003D02146284600F09AFCB4F90C3013F036
:1030800001020AD00022A26062695242A261226952
:1030900042B913F08000C5D138BD990758BF6269A5
:1030A000A260F4E70020F7E718000020034602447E
:1030B000934200D1704703F8011BF9E738B50023AC
:1030C000054D044608462B60FEF746FD431C02D121
:1030D0002B6803B1236038BDBC03002038B504461B
:1030E000084611460022054D2A601A46FEF73EFDAD
:1030F000431C02D12B6803B1236038BDBC03002000
:1031000038B50446084611460022054D2A601A4685
:10311000FEF704FD431C02D12B6803B1236038BDC8
:10312000BC03002038B50023054D044608462B603B
:10313000FEF7D0FC431C02D12B6803B1236038BDDD
:10314000BC03002038B50446084611460022054D50
:103150002A601A46FEF7F2FC431C02D12B6803B129
:10316000236038BDBC030020014B1868704700BFC6
:103170001800002070B500260C4D0D4C641BA410E7
:10318000A64209D100F080FC00260A4D0A4C641BBF
:10319000A410A64205D170BD55F8043B98470136EE
:1031A000EEE755F8043B98470136F2E7283B000864
:1031B000283B0008283B00082C3B0008704770475C
:1031C00070470A44914200F1FF3300D1704710B5B7
:1031D00011F8014B914203F8014FF9D110BD0000E5
:1031E00038B50546002940D051F8043C0C1F002B8F
:1031F000B8BFE418FFF744FD1C4A136833B9636095
:1032000014602846BDE83840FFF740BDA34208D906
:10321000206821188B4201BF19685B68091821607A
:10322000EDE71A465B680BB1A342FAD91168501852
:10323000A0420BD120680144501883421160E0D1B4
:1032400018685B68084410605360DAE702D90C2301
:103250002B60D6E7206821188B4201BF19685B6894
:103260000918216063605460CBE738BD7C02002000
:10327000936810B4013B002B936007DA9469A34272
:1032800001DB0A2902D110BCFFF77BBE1368581C72
:1032900010601970084610BC7047F8B506460F4616
:1032A0001446D518AC4201D1002007E03A4630461A
:1032B00014F8011BFFF7DCFF431CF3D1F8BD00003D
:1032C0002DE9F04F0D461446984606469DB018B1BC
:1032D000036A0BB9FFF76CFD6B6ED90705D4AB8998
:1032E0009A0502D4A86DFFF76AFFAB891B0701D5C9
:1032F0002B699BB929463046FFF782FE70B16B6E91
:10330000DC0704D54FF0FF301DB0BDE8F08FAB896E
:103310009805F7D4A86DFFF753FFF3E7002309934F
:1033200020238DF8293030234FF00109CDF80C808F
:10333000DFF8A8818DF82A3023469A4613F8012B2E
:103340000AB1252AF9D1BAEB040B0BD05B46224611
:1033500029463046FFF7A1FF013000F0A780099A07
:103360005A4409929AF80030002B00F09F80002305
:103370004FF0FF32CDE905230AF1010A04930793C8
:103380008DF853301A935446052214F8011B534804
:1033900000F06CFB049AD8B9D10644BF20238DF805
:1033A0005330130744BF2B238DF853309AF8003065
:1033B0002A2B15D0544600204FF00A0C079A2146BC
:1033C00011F8013B303B092B4BD9B0B1079214E007
:1033D000A0EB080309FA03F31343A2460493D2E7D0
:1033E000039B191D1B680391002BBBBF5B4242F07E
:1033F000020207930793B8BF049223782E2B0AD1B9
:1034000063782A2B32D1039B02341A1D1B68039266
:1034100043EAE3730593DFF8C8A0032250462178FE
:1034200000F024FB38B14022049BA0EB0A0082404C
:1034300013430134049314F8011B062229488DF824
:10344000281000F013FB00283FD0274B1BBB039B29
:10345000073323F0070308330393099B3B44099385
:103460006AE70C4601200CFB0232A8E700234FF06C
:103470000A0C194601340593204610F8012B303A06
:10348000092A03D9002BC6D00591C4E704460123BD
:103490000CFB0121F0E703AB00932A463046134BA7
:1034A00004A9AFF300800746781CD6D16B6ED9070C
:1034B00005D4AB899A0502D4A86DFFF781FEAB89CC
:1034C0005B063FF51FAF09981EE703AB00932A4642
:1034D0003046064B04A900F07DF8E4E7F43A000812
:1034E000FA3A0008FE3A0008000000009B3200088B
:1034F0002DE9F047164698468A680B6907469342BD
:10350000B8BF1346336091F843200C46DDF8209095
:103510000AB1013333602368990642BF336802332E
:103520003360256815F0060506D104F1190AE36831
:1035300032689B1AAB422BDC94F843302268003B84
:1035400018BF0123920630D44146384604F14302A5
:10355000C847013023D02368226903F00603042BF7
:1035600014BF002533684FF0000608BFE56804F17A
:103570001A0408BFED1A54F8123C08BF25EAE57595
:103580009342C4BF9B1AED18B5421AD1002008E03F
:103590000123524641463846C847013003D14FF017
:1035A000FF30BDE8F0870135C1E73020E11881F830
:1035B00043005A1C94F845102244023382F8431009
:1035C000C2E70123224641463846C8470130E6D0CB
:1035D0000136D9E72DE9FF470F7E9146782F8046C7
:1035E0000C469A460C9E01F1430207D8622F0AD876
:1035F000002F00F0D380582F00F0BA8004F142066B
:1036000084F842703AE0A7F16303152BF6D801A1C4
:1036100051F823F06D36000881360008FD350008AA
:10362000FD350008FD350008FD350008813600082D
:10363000FD350008FD350008FD350008FD350008A2
:1036400083370008AB3600083D370008FD35000819
:10365000FD350008A5370008FD350008AB36000829
:10366000FD350008FD3500084537000833681A1D90
:103670001B68326004F1420684F8423001239EE068
:1036800033682068191D3160060601D51D6803E006
:103690004506FBD5B3F90050002D03DA2D236D420A
:1036A00084F843300A23594811E02168336808063A
:1036B00053F8045B02D4490648BFADB26F2F3360A4
:1036C00014BF0A2308235148002184F84310666878
:1036D000002EA8BF2168A660A4BF21F004012160CC
:1036E0000DB9002E4BD01646B5FBF3F103FB115775
:1036F000C75D06F8017D2F46BB420D46F4D9082B65
:103700000BD12368DF0708D5236961689942DEBFC2
:10371000302306F8013C06F1FF36921B22614B462E
:1037200021464046CDF800A003AAFFF7E1FE013094
:103730004AD14FF0FF3004B0BDE8F087236843F072
:10374000200323607827324884F845702368316865
:103750001F0651F8045B02D45F0648BFADB231606A
:10376000D90744BF43F0200323601DB11023ABE70A
:103770002648E9E7236823F020032360F6E716468E
:10378000BDE733682568181D616930602E061B6827
:1037900001D5196002E06806FBD5198000231646A2
:1037A0002361BCE7336800211A1D32601E6862681D
:1037B000304600F05BF908B1801B606063682361EC
:1037C000002384F84330AAE732464946404623693D
:1037D000D0470130ADD023689B0713D4E068039B2A
:1037E0009842B8BF1846A6E70123324649464046EC
:1037F000D04701309DD00135E36803995B1AAB4295
:10380000F2DCEBE7002504F11906F5E7053B0008BB
:10381000163B0008B1F90C20F8B5160705460C4612
:1038200054D44B68002B02DC0B6C002B48DDE66A9D
:10383000002E45D0002312F480522F68216A2B609D
:1038400030D0626DA389590705D56368D21A636BBE
:103850000BB1236CD21A00232846E66A216AB047CE
:10386000431CA38906D129681D292BD8284A0A415F
:10387000D60727D4002262602269D904226004D5C9
:10388000421C01D12B6803B96065616B2F60B9B12F
:1038900004F14403994202D02846FFF7A1FC00231B
:1038A00063630DE001232846B0470246501CC9D18E
:1038B0002B68002BC6D01D2B01D0162B1DD12F60DD
:1038C000002021E043F040031BB21AE00F69002FF3
:1038D000F6D0930718BF00230E6808BF4B69F61B8C
:1038E0000F608B60002EEBDD33463A462846216A96
:1038F000D4F828C0E047002807DCB4F90C3043F0C6
:1039000040034FF0FF30A381F8BD0744361AE9E7C2
:10391000FEFFBFDF38B50B6905460C4613B900251D
:10392000284638BD18B1036A0BB9FFF741FAB4F95C
:103930000C30002BF3D0626ED00704D4990502D46A
:10394000A06DFFF73CFC28462146FFF763FF636E3E
:103950000546DA07E4D4A3899B05E1D4A06DFFF7FF
:103960002FFCDDE770B50C46B1F90E1015460029A5
:103970001E4696B00CDAA389002113F0800F14BF05
:1039800040234FF48063002031602B6016B070BD7F
:103990006A4600F049F80028EDDB019901F4704116
:1039A000A1F50053594259414FF48063EBE78B89ED
:1039B000F7B59D0706460C4607D504F1470323607B
:1039C00023610123636103B0F0BD6A4601ABFFF7D9
:1039D000C9FF009F054639463046FFF7D1F848B980
:1039E000B4F90C309A05EED423F0030343F002033C
:1039F000A381E2E7A389C4E9040743F08003A3811C
:103A0000019B20605BB13046B4F90E1000F01EF847
:103A100028B1A38923F0030343F00103A381A38901
:103A20001D43A581CFE7000038B50023064D0446AD
:103A3000084611462B60FEF792F8431C02D12B6812
:103A400003B1236038BD00BFBC03002038B500239C
:103A5000054D044608462B60FEF786F8431C02D14C
:103A60002B6803B1236038BDBC030020034610B5AA
:103A7000C9B202449342184601D1002003E0047801
:103A800001338C42F6D110BDF8B500BFF8BC08BCBC
:103A90009E467047F8B500BFF8BC08BC9E4670470C
:103AA00069723A25750A0000723A25750A0000000D
:103AB00069723A25752C723A25750A0048656C6C56
:103AC0006F20576F726C640001020000020304054E
:103AD000060708090A0B0C0D0E0F1010000000005D
:103AE00001020304000000000000000001020304C2
:103AF00006070809232D302B2000686C4C006566F2
:103B0000674546470030313233343536373839412E
:103B10004243444546003031323334353637383944
:083B2000616263646566000048
:043B2800350100085B
:043B2C00110100087B
:103B3000010000001000000000127A0000000000E8
:103B400003000000800200201C0000200000000094
:103B500080020020E8020020500300200000000046
:103B60000000000000000000000000000000000055
:103B70000000000000000000000000000000000045
:103B80000000000000000000000000000000000035
:083B900000000000000000002D
:0400000508002AD1F4
:00000001FF
